:100000008EC60000A8C60000A6C60000A4C6000058
:10001000A2C60000A0C600009EC600009CC600004C
:100020009AC6000098C6000096C6000094C600005C
:1000300092C6000090C600008EC600008CC600006C
:100040008AC6000088C6000086C6000084C600007C
:1000500082C6000000088F025A00396730396930C3
:10006000396B30396C30376E303973303973303921
:100070007330337330377030386E30386C30336BE8
:1000800031376B30372130386930386B30386C306D
:10009000386E30336B31376B30382130386230385E
:1000A0006930386B30386C30386E30336B31376BC9
:1000B0003038663038673037693038673038663006
:1000C000376430336B30372130377030386E30382A
:1000D0006C30336B31376B30372130386930386BE7
:1000E00030386C30386E30336B31376B303721300D
:1000F000386930386B30386C30386E30336B3137AC
:100100006B3038663038673037693038673038667A
:10011000303364303777303775303573303572307F
:100120003772303773303775303773303572303758
:10013000723037703032703035663037673037693B
:100140003037693037673035663037673037693078
:100150003773303775303377303769303769303738
:100160006B30376C30376C30376B30356930377700
:1001700030377730377830377A30377A30377830F1
:10018000357730356D30376E303770303770303707
:100190006E30376E30376D30357230337230356BCC
:1001A00030317030347730377530377730377530DD
:1001B00035733031703035703037723037733037D7
:1001C0007230377030376E30376C30356B30376B9C
:1001D00030376C30376B30376930356730356E30DB
:1001E000376E30377030356E30376C30376B3035B6
:1001F0006C30376930376B30356C30376B3037697E
:1002000030376930376730336B30352130356B30FC
:10021000376B30376C30376B303769303567303596
:100220006E30376E30377030356E30376C30376B3C
:1002300030356C30376930376B30356C30376B3078
:10024000376930316730356A30326730346A303779
:100250006C30376F30376D30376C30376A30356D12
:1002600030336A30356F30326E30356F30326E3049
:10027000356F30376E30342130336830386A30377C
:100280002130393730393730393730383730003767
:100290006730376730372130376730372130376381
:1002A00030376730372130376A30342130373730D4
:1002B000342130376330352130373730352130370E
:1002C00034303521303739303721303762303721FB
:1002D0003037613037393037213037373037673092
:1002E000376A30376C30372130376830376A30370B
:1002F0002130376730372130376330376530376228
:1003000030352130376330352130373730352130C3
:100310003734303521303739303721303762303794
:100320002130376130373930372130373730376750
:1003300030376A30376C30372130376830376A30C1
:100340003721303767303721303763303765303702
:100350006230332130376A3037693037683037667A
:100360003037213037673037213037383037393040
:1003700037633037213037393037633037653035C0
:100380002130376A30376930376830376630372187
:1003900030376730372130376F30372130376F30A3
:1003A000376F30332130372130376A303769303793
:1003B000683037663037213037673037213037388B
:1003C00030373930376330372130373930376330A1
:1003D0003765303521303766303521303765303577
:1003E0002130376330312130372130376A30376977
:1003F0003037683037663037213037673037213053
:100400003738303739303763303721303739303784
:100410006330376530352130376A303769303768B7
:1004200030376630372130376730372130376F301B
:10043000372130376F30376F303321303721303745
:100440006A30376930376830376630372130376780
:100450003037213037383037393037633037213053
:1004600037393037633037653035213037663035CE
:100470002130376530352130376330322130372134
:1004800030376330376330372130376330372130CE
:10049000376330376530372130376730376330376F
:1004A00021303739303737303421303763303763D4
:1004B000303721303763303721303763303765309C
:1004C0003767303121303763303763303721303789
:1004D0006330372130376330376530372130376745
:1004E00030376330372130373930373730342130C7
:1004F000376730376730372130376730372130374B
:100500006330376730372130376A3034213037373E
:1005100030342130376330352130373730352130B2
:100520003734303521303739303721303762303782
:10053000213037613037393037213037373037673E
:1005400030376A30376C30372130376830376A30AF
:1005500037213037673037213037633037653037F0
:10056000623035213037633035213037373035212F
:100570003037343035213037393037213037623039
:10058000372130376130373930372130373730371E
:100590006730376A30376C30372130376830376A28
:1005A00030372130376730372130376330376530A7
:1005B0003762303521303767303763303721303795
:1005C00037303521303738303721303739303768D8
:1005D00030372130376830373930342130376230A6
:1005E000376C30376C30376C30376A3037683037BB
:1005F00067303563303739303337303767303763FA
:1006000030372130373730352130373830372130E7
:100610003739303768303721303768303739303440
:100620002130373930376830372130376830376814
:100630003037673037653037633037343037213003
:100640003734303730303421303767303763303724
:10065000213037373035213037383037213037398E
:10066000303768303721303768303739303421300F
:10067000376230376C30376C30376C30376A303730
:100680006830376730356330373930333730376764
:100690003037633037213037373035213037383015
:1006A00037213037393037683037213037683037C5
:1006B00039303421303739303768303721303768B6
:1006C000303768303767303765303763303734302C
:1006D00037213037343037303034213037633037DA
:1006E0006330372130376330372130376330376537
:1006F0003037213037673037633037213037393082
:100700003737303421303763303763303721303773
:100710006330372130376330376530376730312108
:10072000303763303763303721303763303721302B
:1007300037633037653037213037673037633037CC
:100740002130373930373730342130376730376729
:1007500030372130376730372130376330376730F3
:10076000372130376A303421303737303421303751
:1007700067303763303721303737303521303738FD
:1007800030372130373930376830372130376830EB
:10079000373930342130376230376C30376C30378E
:1007A0006C30376A30376830376730356330373907
:1007B00030333730376730376330372130373730B1
:1007C00035213037383037213037393037683037D6
:1007D0002130376830373930342130373930376895
:1007E0003037213037683037683037673037653019
:1007F00037633037343037213037343037303000DA
:10080000376A3037693037673036673036693031AC
:100810002130372130373930376A30376930376720
:1008200030356730356930372130356530376730DE
:100830003539303221303739303567303769303427
:100840006A30376730356430346530356730373972
:1008500030353930356930312130372130376A3021
:100860003769303767303667303669303121303795
:100870002130373930376A3037693037673037677A
:1008800030352130376930376530352130376730C2
:10089000373930312130356730376930346A303795
:1008A0006730346430376530376730372130373957
:1008B0003037653037673037683037673037653005
:1008C0003763303521303739303761303563303573
:1008D00068303767303765303765303763303765B4
:1008E0003037633035633037633037213037393054
:1008F000376130356330356830376A3037683037C4
:10090000673037653037653037673035683037687E
:1009100030372130376A30376C30376D30376D30D3
:10092000356C30356A30376830376A30376C30377D
:100930006C30356A3035683037653037633037654D
:10094000303768303768303567303767303769306F
:1009500034693037213037653035623037213037F0
:1009600062303565303721303765303562303721B8
:100970003037623035653037213037653035623099
:1009800037213037623035653037213037393037ED
:100990006A30376930376730366730366930312131
:1009A00030352130376A3037693037673034673057
:1009B0003769303565303567303539303221303779
:1009C0002130356730376930346A30356730356407
:1009D0003037653034673037393035393035693044
:1009E000312130373930376A303769303767303640
:1009F0006730366930312130372130373930376A46
:100A000030376930376730376730352130376930F4
:100A10003765303521303767303739303739303244
:100A20002130372130356730376930346A303767E5
:100A300030346430376530376730372130373930FC
:100A4000376530376730376830376730376530376C
:100A500063303521303739303761303563303568B0
:100A6000303767303765303765303763303765305A
:100A7000376330356330356330373930376130357F
:100A80006330356830376A303768303767303765FC
:100A900030376530376730356830356830376A3021
:100AA000376C30376D30376D30356C30356A3037F4
:100AB0006830376A30376C30376C30376A303768B7
:100AC00030356830376530376330376530376830F8
:100AD00037683035673037673037693034693037D9
:100AE0002130376530356230372130376230356537
:100AF000303721303765303562303721303762305A
:100B00003565303721303765303562303721303741
:100B10006230356530352130376A303769303767B4
:100B2000303667303669303121303721303739304F
:100B3000376A3037693037673037673035213037BB
:100B400069303765303521303767303739303121FA
:100B500030356730376930346A3037673034643065
:100B600037653035673035393035393035693031B2
:100B70002130372130376A30376930376730366790
:100B800030366930312130352130376A30376930BD
:100B90003767303767303521303769303765303562
:100BA0002130376730373930312130356730376998
:100BB00030346A3037673034643037653035673009
:100BC0003739303765303767303768303767303717
:100BD0006530376330352130373930376130356330
:100BE00030356830376730376530376530376330D8
:100BF00037653037633035633035633037393037F8
:100C00006130356330356830376A30376830376780
:100C100030376530376530376730356830356830A4
:100C2000376A30376C30376D30376D30376C30376E
:100C30006A30356A30376830376A30376C30376C35
:100C400030376A3037683035683037653037633071
:100C50003765303768303768303567303767303759
:100C60006930346930332130376C30376C30376E4F
:100C700030376C3037693035653037673037693039
:100C8000346930342130376C30376C30376C303762
:100C90006E30376C303769303565303767303769DB
:100CA00030346930342130376C30376C30376C3049
:100CB000376E30376C3037693035653037673037ED
:100CC0006930346930332130376C30376C30376EEF
:100CD00030376C30376930356530376730376930D9
:100CE000346930342130376C30376C30376C303702
:100CF0006E30376C3037693035653037673037697B
:100D000030346930342130376A30376C30356C30EC
:100D1000332130376A3037693035693000001124AB
:100D20001FBECFE5D8E0DEBFCDBF10E0A0E6B0E04B
:100D3000EEE2FDE202C005900D92A83DB107D9F7A1
:100D400020E0A8EDB0E001C01D92AC3DB207E1F794
:100D50006AD50C94951654C9089523E023BF3EEF3D
:100D600008C032BF28B7216028BFA89508B600FE8A
:100D7000FDCF0197B0F713BE0895662311F0D89AFE
:100D800001C0D898D99882BB8FEF81BBDA9A000056
:100D900000000000DA980895D898D99A11BA90B353
:100DA000DA9A00000000000011BA90B3DA98992393
:100DB0009CF3E3CF0895D09AD19AD29A80E190E043
:100DC000CCDF60E080E3D9DF85E090E0C6DF60E063
:100DD00080E3D3DF81E090E0C0DF60E08CE3DCDF24
:100DE00060E08CE0D9DF60E086E0D6DF60E081E0A3
:100DF000D3CF089560E081E0CFCF0895CF93C62F81
:100E000098E2899FC00D112460E082E0C5DFCC2309
:100E100029F060E084E1C0DFC150D9F7CF91089597
:100E200061E0BACF0895CF93DF93EC012196FC01E6
:100E30008081882329F061E0AFDF89918111FBCFA8
:100E4000DF91CF910895803309F46EC0813309F4A6
:100E500070C0823309F472C0833309F474C08433E0
:100E600009F476C0853309F478C0863309F47AC072
:100E7000873309F47CC0883309F47EC0893309F4D0
:100E800080C0813609F482C0823609F484C083367A
:100E900009F486C0843609F488C0853609F48AC00E
:100EA000863609F48CC0873609F48EC0883609F47A
:100EB00090C0893609F492C08A3609F494C08B3602
:100EC00009F496C08C3609F498C08D3609F49AC09E
:100ED0008E3609F49CC08F3609F49EC0803709F421
:100EE000A0C0813709F4A2C0823709F4A4C08337B7
:100EF00009F4A6C0843709F4A8C0853709F4AAC04C
:100F0000863709F4ACC0873709F4AEC0883709F4D6
:100F1000B0C0893709F4B2C08A3709F0B4C060E1C3
:100F200070E080E090E0089568E770E080E090E095
:100F3000089561E770E080E090E008956AE670E06F
:100F400080E090E0089564E670E080E090E008952D
:100F50006FE570E080E090E008956AE570E080E081
:100F600090E0089565E570E080E090E0089560E528
:100F700070E080E090E008956BE470E080E090E045
:100F8000089567E470E080E090E0089564E470E024
:100F900080E090E0089560E470E080E090E00895E3
:100FA0006CE370E080E090E0089568E370E080E03A
:100FB00090E0089565E370E080E090E0089562E3DA
:100FC00070E080E090E008956FE270E080E090E0F3
:100FD00008956DE270E080E090E008956AE270E0CC
:100FE00080E090E0089568E270E080E090E008958D
:100FF00066E270E080E090E0089564E270E080E0F6
:1010000090E0089562E270E080E090E0089560E290
:1010100070E080E090E008956EE170E080E090E0A4
:1010200008956CE170E080E090E008956BE170E07D
:1010300080E090E0089569E170E080E090E008953C
:1010400068E170E080E090E0089566E170E080E0A3
:1010500090E0089565E170E080E090E0089564E13B
:1010600070E080E090E0089563E170E080E090E05F
:10107000089562E170E080E090E0089561E170E041
:1010800080E090E0089561E070E080E090E00895F5
:10109000803309F46EC0813309F46DC0823309F4E2
:1010A0006CC0833309F46BC0843309F46AC08533A0
:1010B00009F469C0863309F468C0873309F467C04E
:1010C000883309F466C0893309F465C0813609F4B0
:1010D00064C0823609F463C0833609F462C0843682
:1010E00009F461C0853609F460C0863609F45FC032
:1010F000873609F45EC0883609F45DC0893609F484
:101100005CC08A3609F45BC08B3609F45AC08C3651
:1011100009F459C08D3609F458C08E3609F457C009
:101120008F3609F456C0803709F455C0813709F469
:1011300054C0823709F453C0833709F452C084374E
:1011400009F451C0853709F450C0863709F44FC0FF
:10115000873709F44EC0883709F44DC0893709F440
:101160004CC08A3709F44BC0813209F04AC084E28E
:10117000089580E0089581E0089582E0089583E075
:10118000089584E0089585E0089586E0089587E055
:10119000089588E0089589E008958AE008958BE035
:1011A00008958CE008958DE008958EE008958FE015
:1011B000089580E1089581E1089582E1089583E131
:1011C000089584E1089585E1089586E1089587E111
:1011D000089588E1089589E108958AE108958BE1F1
:1011E00008958CE108958DE108958EE108958FE1D1
:1011F000089580E2089581E2089582E2089583E2ED
:10120000089585E208959A01AB01803349F460E0C6
:1012100071EE80E090E00E948612CA01B901089543
:10122000813349F460E076E980E090E00E94861224
:10123000CA01B9010895823349F460E870E780E09B
:1012400090E00E948612CA01B9010895833349F4DF
:1012500060E07BE480E090E00E948612CA01B90160
:101260000895843349F460E478E380E090E00E94DC
:101270008612CA01B9010895853349F460E875E220
:1012800080E090E00E948612CA01B9010895863379
:1012900049F460E27CE180E090E00E948612CA019D
:1012A000B9010895873349F460EC72E180E090E081
:1012B0000E948612CA01B9010895883349F460E694
:1012C00079E080E090E00E948612CA01B901089599
:1012D000893349F460EB74E080E090E00E9486126C
:1012E000CA01B901089560E070E0CB0108956F92E2
:1012F0007F928F929F92AF92BF92CF92DF92EF92A6
:10130000FF920F931F93CF93DF93EC018A01000F9D
:10131000111F040F151F060F171FF8017180872D6D
:1013200092DD6B017C01AB01BC01F80180816BDFB8
:101330004B015C0166246394F8018281803309F0DB
:10134000612C872DA5DEC882D982EA82FB828C823D
:101350009D82AE82BF8288876986CE01DF91CF9160
:101360001F910F91FF90EF90DF90CF90BF90AF90C3
:101370009F908F907F906F9008950F931F93CF93BE
:10138000DF9300D0CDB7DEB79C012C5F3F4F41E02B
:1013900050E08A0102C0000F111F2A95E2F7B02F1A
:1013A000A02FA09520E030E0E1E0F0E074B3AF01C1
:1013B000022E02C0440F551F0A94E2F7542F509595
:1013C000572354BB55B3452B45BB8217930739F4BC
:1013D00044B34B2B44BB45B34A2345BB12C074B343
:1013E000A9014C5F5F4F8F0102C0000F111F4A958A
:1013F000E2F7A8014095542F572354BB55B345231A
:1014000045BB2F5F3F4F2430310581F61A82198288
:1014100029813A81243631055CF429813A812F5F94
:101420003F4F3A83298329813A8124363105ACF331
:1014300083B390E002C0959587956A95E2F711E035
:10144000812781700F900F90DF91CF911F910F91A5
:1014500008950F931F93CF93DF93CDB7DEB72A97ED
:101460000FB6F894DEBF0FBECDBF09831A832B835E
:101470003C834D835E836F83788789879A87498110
:101480005A816B817C81413051056105710529F1DB
:101490009DEC899F912D1124969596959370853298
:1014A000E1F0823170F04BB39C5F21E030E0B90194
:1014B00002C0660F771F9A95E2F7CB01842B8BBB96
:1014C0000CC048B321E030E0B90102C0660F771FBD
:1014D0009A95E2F7CB01842B88BB2A960FB6F89435
:1014E000DEBF0FBECDBFDF91CF911F910F91089549
:1014F0000F931F93CF93DF93CDB7DEB72A970FB625
:10150000F894DEBF0FBECDBF09831A832B833C83C3
:101510004D835E836F83788789879A8749815A8153
:101520006B817C81413051056105710539F19DEC7C
:10153000899F912D11249695969593708532F1F09F
:10154000823178F04BB39C5F21E030E0B90102C0FA
:10155000660F771F9A95E2F7CB01809584238BBBAA
:101560000DC048B321E030E0B90102C0660F771F1B
:101570009A95E2F7CB018095842388BB2A960FB613
:10158000F894DEBF0FBECDBFDF91CF911F910F91B9
:1015900008954F925F926F927F928F929F92AF9237
:1015A000BF92CF92DF92EF92FF920F931F93CF9350
:1015B000DF93CDB7DEB72E970FB6F894DEBF0FBE20
:1015C000CDBF09831A832B833C834D835E836F8356
:1015D000788789879A874D805E806F80788489803C
:1015E0009A80AB80BC80C501B40177D66B877C87BD
:1015F0008D879E87A701960126D743D68B01A70129
:10160000960160E070E080E090E46AD59B01AC0157
:101610006B857C858D859E8516D733D66B014114ED
:10162000510461047104E9F0E12CF12C81E0881689
:101630009104A104B10491F0DB9AC8018EDBDB9820
:10164000C6018BDB8FEFE81AF80AC701A0E0B0E013
:1016500084159505A605B70548F303C0C8017DDBD1
:10166000EFCF2E960FB6F894DEBF0FBECDBFDF9141
:10167000CF911F910F91FF90EF90DF90CF90BF908F
:10168000AF909F908F907F906F905F904F90089554
:10169000CF92DF92EF92FF920F931F93CF93DF933E
:1016A00000D000D000D0CDB7DEB77C018B0180E147
:1016B00090E04ED7C82ED92E0E0D1F1DF80186853D
:1016C0001F928F9385851F928F9384851F928F938E
:1016D00083851F928F9382851F928F9381851F929E
:1016E0008F9380851F928F9387811F928F9386811E
:1016F0001F928F9385811F928F9384811F928F9366
:1017000083811F928F9382811F928F9381811F9279
:101710008F9380811F928F9341EA50E05F934F93A4
:101720009F93CF920E94D613F801478550E0542F23
:1017300044278089482B618970E0762F662782894B
:10174000682B5C834B837E836D835C817E810FB6C7
:10175000F894DEBF0FBECDBF2C2D3D2D80E090E074
:1017600026960FB6F894DEBF0FBECDBFDF91CF91A6
:101770001F910F91FF90EF90DF90CF900895CF923F
:10178000DF92EF92FF920F931F93CF93DF937C0131
:101790006B01EA012FDB60E080E030DB8EE340DBB1
:1017A00061E080E02BDB8E01000F111F0C0F1D1F6D
:1017B000000F111FF701E00FF11F8081918133DBD2
:1017C0002196CC15DD054CF461E081E017DBF701D3
:1017D000E00FF11F8681978126DBDF91CF911F916A
:1017E0000F91FF90EF90DF90CF9008950F931F938C
:1017F000CF93DF93EC018C819D819C01220F331FDD
:10180000820F931FA5D68C01EA81FB81EE0FFF1F8B
:10181000EC5AFF4F65917491C2D7C801DF91CF9107
:101820001F910F910895CF93DF93CDB7DEB7CB58BB
:10183000D1090FB6F894DEBF0FBECDBF8DDABBDA8B
:10184000D9DAD49AD59AD69AD79AB89AB99ABA9A2E
:10185000BB9AFE013196EE2EFF2ECE0141961192DB
:10186000E817F907E1F7D39A8BE3E6E6F0E0DE014B
:10187000519601900D928A95E1F7898990E0982F11
:1018800088272A89AC01422BCE57DF4F59834883E2
:10189000C258D0405A01AA0CBB1CA40EB51EAA0CFB
:1018A000BB1CC50155D6EE969FAF8EAFEE97CE57B7
:1018B000DF4F88819981C258D0401816190634F537
:1018C000EE960EAD1FADEE97A00EB11E6894CC241F
:1018D000C1F8D12CB601CE014196DADED8012C93A5
:1018E00011963C93119712964C93129713965C9312
:1018F000139714966C93149715967C930A5F1F4F59
:10190000B3E1CB0ED11C0A151B0521F781E29BDA4E
:10191000C857DF4F6883C858D040C757DF4F788318
:10192000C958D040C657DF4F8883CA58D040C557E2
:10193000DF4F9883CB58D040462F572F682F792FF1
:1019400088E361DC64966CAF7DAF8EAF9FAF649728
:1019500081E066968FAF669740E050E0CE57DF4F4C
:1019600068817981C258D040EE968EAD9FADEE97DA
:1019700006DFEE96EEADFFADEE97E796FFAFEEAF6A
:10198000E797E3961FAE1EAEE39720E030E040E815
:101990005FE3C258DF4F288339834A835B83CE5786
:1019A000D040EC961FAE1EAEEC97812C912CEA969F
:1019B0001FAE1EAEEA97612C712CCE57DF4F4881C7
:1019C0005981C258D04041505109CA57DF4F5983FD
:1019D0004883C658D0400F2EF3E25F2EF02DAF2C77
:1019E000E896EFAEE897B62C472C51E085169104A7
:1019F00009F48BC082E08816910409F414C38114A1
:101A0000910409F04CC3662D772D81E090E0B5DCA0
:101A10008823E9F08D8181111AC0EA96AEADBFAD81
:101A2000EA971A161B060CF03AC31197EA96BFAF55
:101A3000AEAFEA97AD01CE57DF4F68817981C258CA
:101A4000D040EE968EAD9FADEE9799DE28C362E052
:101A500070E081E090E091DC882319F18F818111A1
:101A600020C0EA96EEADFFADEA97CA57DF4F288156
:101A70003981C658D040E217F3070CF010C33196F5
:101A8000EA96FFAFEEAFEA97AF01CE57DF4F68811E
:101A90007981C258D040EE968EAD9FADEE976FDE45
:101AA000FEC261E070E081E090E067DC882309F429
:101AB000F6C28E818111F3C29DD9EA968EAD9FAD9B
:101AC000EA97880F991FEA964EAD5FADEA97840FAB
:101AD000951F880F991FEE96AEADBFADEE97A80F7C
:101AE000B91FE796BFAFAEAFE797CD017FDEEC96AB
:101AF0009FAF8EAFEC97E2966FAEE297E3967FAE24
:101B0000E39788248394912CCAC2E796EEADFFAD8B
:101B1000E79784819581E3962EAD3FADE397281733
:101B2000390708F025C119013FEF231A330AE3965C
:101B30004EAD5FADE397EC966EAD7FADEC97CE0109
:101B400089599F4FD4DBA8960FADA897A9961FADD2
:101B5000A997AA962FADAA97AB963FADAB97AC9637
:101B60004FADAC97AD965FADAD97AE966FADAE97FE
:101B7000AF967FADAF97E0968FADE097E1969FADC2
:101B8000E19767DCC258DF4FC880D980EA80FB80CC
:101B9000CE57D040A8960FADA897A9961FADA9978C
:101BA000AA962FADAA97AB963FADAB97AC964FAD2B
:101BB000AC97AD965FADAD97AE966FADAE97AF9665
:101BC0007FADAF97E0968FADE097E1969FADE1973F
:101BD000E0DCA8960FADA897A9961FADA997AA9685
:101BE0002FADAA97AB963FADAB97AC964FADAC97E8
:101BF000AD965FADAD97AE966FADAE97AF967FAD3C
:101C0000AF97E0968FADE097E1969FADE19770DCDE
:101C1000E1968FADE197882309F43EC0C857DF4FA6
:101C20000881C858D0402D960FAF2D97C757DF4F6A
:101C30004881C958D0402E964FAF2E97C657DF4FD8
:101C40005881CA58D0402F965FAF2F97C557DF4FA6
:101C50008881CB58D04060968FAF6097C258DF4FD5
:101C6000C880D980EA80FB80CE57D040142F252F22
:101C7000382F61964FAD619762965FAD629763961C
:101C80006FAD639764967FAD649765968FAD6597EA
:101C900066969FAD66977DDCE7ECF0E0DE01AA5A20
:101CA000BF4F81E101900D928A95E1F7B10180E08B
:101CB00090E013D36B017C01E796AEADBFADE79723
:101CC00014966D917C91159780E090E006D39B016E
:101CD000AC01C701B6016DD220E030E040E851E42C
:101CE000B2D36B017C0120E030E0A901A8D3181623
:101CF00044F5FE01EA5AFF4FCC57DF4FF983E883E2
:101D0000C458D040062D172DE596CCAEDDAEEEAE14
:101D1000FFAEE59764017F01D7015D927D010F5F02
:101D20001F4FB801882777FD8095982FD8D2E59668
:101D30002CAD3DAD4EAD5FADE59737D2882364F352
:101D4000460158D861E080E059D8E796EEADFFAD86
:101D5000E7978081918167D860E081E04FD8CE011C
:101D60008A5A9F4F60D8E3963FAE2EAEE39722C0CB
:101D7000EC968EAD9FADEC9783D4EA964EAD5FADF9
:101D8000EA97CE57DF4F68817981C258D040EE96EE
:101D90008EAD9FADEE97F3DCE2966FAEE297E396E1
:101DA0007FAEE397E6966FAEE697E7967FAEE7974E
:101DB000862C972C61E070E081E090E0DEDA8823E9
:101DC000C1F08E81811115C015D861E080E016D870
:101DD000E796AEADBFADE7978D919C9124D860E0BA
:101DE00081E00CD880EC90E01ED86894882481F8BB
:101DF000912C662D772D83E090E0BFDA882329F1BE
:101E00008D85811122C0EC968EAD9FADEC9738D4B4
:101E1000EA964EAD5FADEA97CE57DF4F6881798184
:101E2000C258D040EE968EAD9FADEE97A8DCE296FC
:101E30006FAEE297E3967FAEE397E6966FAEE697D6
:101E4000E7967FAEE797862C972C662D772D81E05D
:101E500090E093DA882339F18D81811124C02DEC33
:101E60003CEC4CEC5DE3C258DF4F688179818A819C
:101E70009B81CE57D040E3D28823ACF02DEC3CECD4
:101E80004CEC5DE3C258DF4F688179818A819B8188
:101E9000CE57D04025D1C258DF4F688379838A83DB
:101EA0009B83CE57D04062E070E081E090E065DA3D
:101EB000882339F18F81811124C023E333E343EF79
:101EC0005FE3C258DF4F688179818A819B81CE5759
:101ED000D0406BD18823ACF42DEC3CEC4CEC5DE3B2
:101EE000C258DF4F688179818A819B81CE57D0406B
:101EF000F8D0C258DF4F688379838A839B83CE579B
:101F0000D04061E070E082E090E037DA882309F4A5
:101F100043C08A85811140C0EA96EEADFFADEA97D5
:101F2000CA57DF4F28813981C658D040E217F307DE
:101F30009CF53196EA96FFAFEEAFEA970E94FA065B
:101F4000EA968EAD9FADEA97880F991FEA964EAD3F
:101F50005FADEA97840F951F880F991FEE96AEAD7F
:101F6000BFADEE97A80FB91FE796BFAFAEAFE7972B
:101F7000EC968EAD9FADEC9783D3E7968EAD9FAD7B
:101F8000E79734DCEC969FAF8EAFEC97E2966FAE9E
:101F9000E297E3967FAEE39761E070E0862D972DA0
:101FA000ECD9882309F47BC08A81811178C0EA9634
:101FB000EEADFFADEA971E161F060CF070C031970C
:101FC000EA96FFAFEEAFEA970E94FA06EA968EAD68
:101FD0009FADEA97880F991FEA962EAD3FADEA971D
:101FE000820F931F880F991FEE964EAD5FADEE974F
:101FF000480F591FE7965FAF4EAFE797EC968EAD4F
:102000009FADEC973DD3E7968EAD9FADE797EEDBA6
:10201000EC969FAF8EAFEC97E2966FAEE297E396A9
:102020007FAEE3973CC061E070E081E090E0A5D92D
:10203000882349F08E81811106C00E94FA06882407
:102040008394912C2CC0662D772D83E090E095D958
:10205000882329F18885811122C0EC968EAD9FAD31
:10206000EC970ED3EA964EAD5FADEA97CE57DF4FB1
:1020700068817981C258D040EE968EAD9FADEE97C3
:102080007EDBE2966FAEE297E3967FAEE397E6964D
:102090006FAEE697E7967FAEE797862C972CE8968B
:1020A0002FACE8973A2CC62CD72C16C0B801C60125
:1020B00064D9D7018D937D010F5F1F4F0430110547
:1020C000A9F7BFEFCB1ADB0AE4E02E0E311CF4E0D7
:1020D000CF16D10409F489CC71010B2D142DE6CF54
:1020E0005058BB27AA270ED070C161D130F066D1FD
:1020F00020F031F49F3F11F41EF456C10EF4E09528
:10210000E7FB4CC1E92F72D180F3BA17620773075E
:102110008407950718F071F49EF58AC10EF4E095D6
:102120000B2EBA2FA02D0B01B90190010C01CA0191
:10213000A0011124FF27591B99F0593F50F4503E3C
:1021400068F11A16F040A22F232F342F4427585F2E
:10215000F3CF469537952795A795F0405395C9F746
:102160007EF41F16BA0B620B730B840BBAF09150FE
:10217000A1F0FF0FBB1F661F771F881FC2F70EC09D
:10218000BA0F621F731F841F48F487957795679570
:10219000B795F7959E3F08F0B3CF9395880F08F059
:1021A0009927EE0F979587950895D4D008F481E08C
:1021B00008950CD00AC102D140F0F9D030F021F4DA
:1021C0005F3F19F0EBC0511134C1EEC00FD198F34D
:1021D0009923C9F35523B1F3951B550BBB27AA27A8
:1021E00062177307840738F09F5F5F4F220F331F1A
:1021F000441FAA1FA9F333D00E2E3AF0E0E830D0E6
:1022000091505040E695001CCAF729D0FE2F27D0E8
:10221000660F771F881FBB1F261737074807AB07B6
:10222000B0E809F0BB0B802DBF01FF2793585F4F2B
:102230002AF09E3F510568F0B1C0FBC05F3FECF350
:10224000983EDCF3869577956795B795F7959F5FF0
:10225000C9F7880F911D9695879597F90895E1E044
:10226000660F771F881FBB1F621773078407BA07A3
:1022700020F0621B730B840BBA0BEE1F88F7E095FE
:102280000895BCD088F09F5790F0B92F9927B75187
:10229000A0F0D1F0660F771F881F991F1AF0BA952A
:1022A000C9F712C0B13081F0C3D0B1E00895C0C009
:1022B000672F782F8827B85F39F0B93FCCF3869520
:1022C00077956795B395D9F73EF49095809570957D
:1022D00061957F4F8F4F9F4F0895E89409C097FBFA
:1022E0003EF490958095709561957F4F8F4F9F4FED
:1022F0009923A9F0F92F96E9BB279395F695879531
:1023000077956795B795F111F8CFFAF4BB0F11F4F3
:1023100060FF1BC06F5F7F4F8F4F9F4F16C088239A
:1023200011F096E911C0772321F09EE8872F762FD0
:1023300005C0662371F096E8862F70E060E02AF011
:102340009A95660F771F881FDAF7880F96958795FD
:1023500097F90895990F0008550FAA0BE0E8FEEFD2
:1023600016161706E807F907C0F012161306E40759
:10237000F50798F0621B730B840B950B39F40A2652
:1023800061F0232B242B252B21F408950A2609F430
:10239000A140A6958FEF811D811D089597F99F6734
:1023A00080E870E060E008959FEF80EC08950024DD
:1023B0000A941616170618060906089500240A94AA
:1023C00012161306140605060895092E0394000C30
:1023D00011F4882352F0BB0F40F4BF2B11F460FFBF
:1023E00004C06F5F7F4F8F4F9F4F089557FD9058E8
:1023F000440F551F59F05F3F71F04795880F97FBC9
:10240000991F61F09F3F79F0879508951216130682
:102410001406551FF2CF4695F1DF08C016161706B1
:102420001806991FF1CF86957105610508940895E6
:10243000E894BB2766277727CB0197F908958ADFB1
:1024400008F48FEF08950BD0C0CFB1DF28F0B6DFCE
:1024500018F0952309F0A2CFA7CF1124EACFC6DF49
:10246000A0F3959FD1F3950F50E0551F629FF001A7
:10247000729FBB27F00DB11D639FAA27F00DB11D00
:10248000AA1F649F6627B00DA11D661F829F222789
:10249000B00DA11D621F739FB00DA11D621F839F10
:1024A000A00D611D221F749F3327A00D611D231FE6
:1024B000849F600D211D822F762F6A2F11249F5734
:1024C00050408AF0E1F088234AF0EE0FFF1FBB1F57
:1024D000661F771F881F91505040A9F79E3F5105F6
:1024E00070F05CCFA6CF5F3FECF3983EDCF38695AF
:1024F00077956795B795F795E7959F5FC1F7FE2BA1
:10250000880F911D9695879597F90895A1E21A2E47
:10251000AA1BBB1BFD010DC0AA1FBB1FEE1FFF1F87
:10252000A217B307E407F50720F0A21BB30BE40BD7
:10253000F50B661F771F881F991F1A9469F760951E
:102540007095809590959B01AC01BD01CF010895D8
:10255000CF93DF938230910510F482E090E0E09118
:10256000DA00F091DB0020E030E0A0E0B0E030974E
:1025700039F14081518148175907B8F04817590778
:1025800071F482819381109729F013969C938E9316
:1025900012972CC09093DB008093DA0027C021159E
:1025A000310531F04217530718F0A901DB0101C0D2
:1025B000EF019A01BD01DF010280F381E02DD7CF49
:1025C00021153105F9F0281B390B2430310580F431
:1025D0008A819B816115710521F0FB0193838283C0
:1025E00004C09093DB008093DA00FE01329644C071
:1025F000FE01E20FF31F8193919322503109398339
:1026000028833AC02091D8003091D900232B41F47F
:1026100020916200309163003093D9002093D8005C
:1026200020916000309161002115310541F42DB7F2
:102630003EB74091640050916500241B350BE0913A
:10264000D800F091D900E217F307A0F42E1B3F0B3E
:102650002817390778F0AC014E5F5F4F2417350714
:1026600048F04E0F5F1F5093D9004093D8008193DC
:10267000919302C0E0E0F0E0CF01DF91CF910895A7
:10268000CF93DF93009709F487C0FC013297138240
:102690001282C091DA00D091DB00209781F4208172
:1026A0003181280F391F8091D8009091D90082176D
:1026B000930779F5F093D900E093D8006DC0DE015F
:1026C00020E030E0AE17BF0750F412964D915C91B8
:1026D00013979D014115510509F1DA01F3CFB38339
:1026E000A28340815181840F951F8A179B0771F443
:1026F0008D919C911197840F951F029691838083F1
:1027000012968D919C9113979383828321153105A5
:1027100029F4F093DB00E093DA003EC0D901139670
:10272000FC93EE9312974D915D91A40FB51FEA179C
:10273000FB0779F480819181840F951F0296D9015E
:1027400011969C938E938281938113969C938E9382
:102750001297E0E0F0E08A819B81009719F0FE017A
:10276000EC01F9CFCE01029628813981820F931FA7
:102770002091D8003091D9002817390769F4309793
:1027800029F41092DB001092DA0002C01382128248
:10279000D093D900C093D800DF91CF910895FB0169
:1027A000DC0105900D920020E1F70895AEE0B0E065
:1027B000EBEDF3E191C20D891E8986E08C831A83CB
:1027C00009838FEF9FE79E838D83AE01475E5F4F46
:1027D0006F89788DCE01019608D0EF81F885E00FE2
:1027E000F11F10822E96E4E093C2ACE0B0E0EAEF75
:1027F000F3E164C27C016B018A01FC01178216823D
:10280000838181FFB0C1CE0101964C01F701938114
:10281000F60193FD859193FF81916F01882309F45F
:102820009EC1853239F493FD859193FF81916F01AB
:10283000853221F4B70190E0B1D1E8CF512C312C91
:1028400020E02032A0F48B3269F030F4803259F06D
:10285000833269F420612CC08D3239F0803339F431
:10286000216026C02260246023C0286021C027FD8B
:1028700027C030ED380F3A3078F426FF06C0FAE072
:102880005F9E300D1124532E13C08AE0389E300D08
:102890001124332E20620CC08E3221F426FD5FC13C
:1028A000206406C08C3611F4206802C0883641F4DA
:1028B000F60193FD859193FF81916F018111C1CF45
:1028C000982F9F7D9554933028F40C5F1F4FFFE3A2
:1028D000F9830DC0833631F0833771F0833509F009
:1028E00057C021C0F801808189830E5F1F4F4424A7
:1028F0004394512C540114C03801F2E06F0E711C46
:10290000F801A080B18026FF03C0652D70E002C0F1
:102910006FEF7FEFC5012C8736D12C0183012C8509
:102920002F77222E16C03801F2E06F0E711CF801CD
:10293000A080B18026FF03C0652D70E002C06FEF5C
:102940007FEFC5012C8714D12C012C852068222E05
:10295000830123FC19C0832D90E048165906A0F48A
:10296000B70180E290E01AD13A94F5CFF50127FC47
:10297000859127FE81915F01B70190E00FD1311061
:102980003A94F1E04F1A51084114510479F7DEC02E
:10299000843611F0893631F5F80127FF07C06081D0
:1029A0007181828193810C5F1F4F08C060817181AA
:1029B000882777FD8095982F0E5F1F4F2F76B22EB8
:1029C00097FF09C090958095709561957F4F8F4FC7
:1029D0009F4F2068B22E2AE030E0A40111D1A82E2A
:1029E000A81843C0853729F42F7EB22E2AE030E0A4
:1029F00025C0F22FF97FBF2E8F36C1F018F488352D
:102A000079F0ADC0803719F0883721F0A8C02F2F9A
:102A10002061B22EB4FE0DC08B2D8460B82E09C08B
:102A200024FF0AC09F2F9660B92E06C028E030E030
:102A300005C020E130E002C020E132E0F801B7FE3D
:102A400007C060817181828193810C5F1F4F06C036
:102A50006081718180E090E00E5F1F4FA401D0D0B3
:102A6000A82EA818FB2DFF77BF2EB6FE0BC02B2D6E
:102A70002E7FA51450F4B4FE0AC0B2FC08C02B2D62
:102A80002E7E05C07A2C2B2D03C07A2C01C0752C0C
:102A900024FF0DC0FE01EA0DF11D8081803311F489
:102AA000297E09C022FF06C07394739404C0822F4C
:102AB000867809F0739423FD12C020FF06C05A2CBB
:102AC000731418F4530C5718732C731460F4B70173
:102AD00080E290E02C8762D073942C85F6CF73143B
:102AE00010F4371801C0312C24FF11C0B70180E366
:102AF00090E02C8753D02C8522FF16C021FF03C005
:102B000088E590E002C088E790E0B7010CC0822F12
:102B1000867851F021FD02C080E201C08BE227FDE2
:102B20008DE2B70190E03AD0A51430F4B70180E30C
:102B300090E034D05A94F8CFAA94F401EA0DF11D34
:102B40008081B70190E02AD0A110F6CF332009F49C
:102B50005DCEB70180E290E021D03A94F7CFF70143
:102B60008681978102C08FEF9FEF2C96E2E1C2C071
:102B7000FC010590615070400110D8F78095909548
:102B80008E0F9F1F0895FC0161507040019001104D
:102B9000D8F7809590958E0F9F1F08950F931F93E0
:102BA000CF93DF93182F092FEB018B8181FD03C099
:102BB0008FEF9FEF20C082FF10C04E815F812C817C
:102BC0003D81421753077CF4E881F9819F012F5F13
:102BD0003F4F39832883108306C0E885F985812F0C
:102BE0000995892B29F72E813F812F5F3F4F3F8326
:102BF0002E83812F902FDF91CF911F910F910895F8
:102C0000FA01AA27283051F1203181F1E8946F931D
:102C10006E7F6E5F7F4F8F4F9F4FAF4FB1E03ED0C3
:102C2000B4E03CD0670F781F891F9A1FA11D680F61
:102C3000791F8A1F911DA11D6A0F711D811D911D94
:102C4000A11D20D009F468943F912AE0269F112409
:102C50003019305D3193DEF6CF010895462F47706D
:102C6000405D4193B3E00FD0C9F7F6CF462F4F70C8
:102C7000405D4A3318F0495D31FD4052419302D026
:102C8000A9F7EACFB4E0A6959795879577956795CC
:102C9000BA95C9F700976105710508959B01AC01CC
:102CA0000A2E06945795479537952795BA95C9F7F3
:102CB000620F731F841F951FA01D08952F923F92CE
:102CC0004F925F926F927F928F929F92AF92BF923C
:102CD000CF92DF92EF92FF920F931F93CF93DF93E8
:102CE000CDB7DEB7CA1BDB0B0FB6F894DEBF0FBE45
:102CF000CDBF09942A88398848885F846E847D8492
:102D00008C849B84AA84B984C884DF80EE80FD8093
:102D10000C811B81AA81B981CE0FD11D0FB6F89409
:0E2D2000DEBF0FBECDBFED010895F894FFCFCA
:102D2E000000DC0020000003506F7274616C2D53A4
:102D3E0074696C6C20416C000001B453757065723F
:102D4E00204D6172696F2042726F000101D0536D88
:102D5E006173682042726F732042726177000200C5
:102D6E00BC256325632563256325632563256325BC
:102D7E00632563256325632563256325632563002A
:102D8E00506175736564002E2E2E2E2E2E2E2E2E35
:082D9E002E2E2E2E2E2E2E00EB
:00000001FF
