:1000000029C0000042C0000040C000003EC0000007
:100010003CC000003AC0000038C0000036C00000FC
:1000200034C0000032C0000030C000002EC000000C
:100030002CC000002AC0000028C0000026C000001C
:1000400024C0000022C0000020C000001EC000002C
:100050001CC0000011241FBECFE5D8E0DEBFCDBF1D
:1000600015E0A0E6B0E0E0E7F7E002C005900D92F1
:10007000AE37B107D9F725E0AEE7B5E001C01D9274
:10008000AE37B207E1F73AD371C3BACF23E023BF4B
:100090003EEF08C032BF28B7216028BFA89508B638
:1000A00000FEFDCF0197B0F713BE0895662311F04F
:1000B000D89A01C0D898D99882BB8FEF81BBDA9AC1
:1000C000000000000000DA980895D898D99A11BA73
:1000D00090B3DA9A00000000000011BA90B3DA98E9
:1000E00099239CF3E3CF0895D09AD19AD29A80E1D4
:1000F00090E0CCDF60E080E3D9DF85E090E0C6DF10
:1001000060E080E3D3DF81E090E0C0DF60E08CE37B
:10011000DCDF60E08CE0D9DF60E086E0D6DF60E025
:1001200081E0D3CF089560E081E0CFCF08958033A0
:1001300009F46EC0813309F470C0823309F472C0CF
:10014000833309F474C0843309F476C0853309F429
:1001500078C0863309F47AC0873309F47CC08833C9
:1001600009F47EC0893309F480C0813609F482C065
:10017000823609F484C0833609F486C0843609F4D3
:1001800088C0853609F48AC0863609F48CC0873663
:1001900009F48EC0883609F490C0893609F492C0FB
:1001A0008A3609F494C08B3609F496C08C3609F46B
:1001B00098C08D3609F49AC08E3609F49CC08F36EB
:1001C00009F49EC0803709F4A0C0813709F4A2C0A9
:1001D000823709F4A4C0833709F4A6C0843709F430
:1001E000A8C0853709F4AAC0863709F4ACC08737A0
:1001F00009F4AEC0883709F4B0C0893709F4B2C039
:100200008A3709F0B4C060E170E080E090E00895C2
:1002100068E770E080E090E0089561E770E080E0DA
:1002200090E008956AE670E080E090E0089564E66A
:1002300070E080E090E008956FE570E080E090E08D
:1002400008956AE570E080E090E0089565E570E06B
:1002500080E090E0089560E570E080E090E008952F
:100260006BE470E080E090E0089567E470E080E087
:1002700090E0089564E470E080E090E0089560E428
:1002800070E080E090E008956CE370E080E090E042
:10029000089568E370E080E090E0089565E370E021
:1002A00080E090E0089562E370E080E090E00895DF
:1002B0006FE270E080E090E008956DE270E080E031
:1002C00090E008956AE270E080E090E0089568E2CE
:1002D00070E080E090E0089566E270E080E090E0F9
:1002E000089564E270E080E090E0089562E270E0DA
:1002F00080E090E0089560E270E080E090E0089592
:100300006EE170E080E090E008956CE170E080E0E4
:1003100090E008956BE170E080E090E0089569E17D
:1003200070E080E090E0089568E170E080E090E0A7
:10033000089566E170E080E090E0089565E170E086
:1003400080E090E0089564E170E080E090E008953E
:1003500063E170E080E090E0089562E170E080E0A9
:1003600090E0089561E170E080E090E0089561E040
:1003700070E080E090E008959A01AB01803341F491
:1003800060E87BEB8FEF9FEFCFD1CA01B9010895F1
:10039000813341F460E07DE780E090E0C5D1CA019F
:1003A000B9010895823341F460EC7DE580E090E08E
:1003B000BBD1CA01B9010895833341F460E87EE3FB
:1003C00080E090E0B1D1CA01B9010895843341F4CD
:1003D00060EE7EE280E090E0A7D1CA01B901089505
:1003E000853341F460E47FE180E090E09DD1CA0173
:1003F000B9010895863341F460E777E180E090E049
:1004000093D1CA01B9010895873341F460EA7FE0CE
:1004100080E090E089D1CA01B9010895883341F4A0
:1004200060ED77E080E090E07FD1CA01B9010895E6
:1004300060E070E0CB010895CF92DF92EF92FF92DF
:100440000F931F93CF93DF93EC018B01000F111FCC
:10045000060F171F005A1F4FF801818168DE6B01DC
:100460007C01AB01BC01F801808186DF21E0F8014D
:100470003281303309F020E0C882D982EA82FB82DF
:100480006C837D838E839F832887CE01DF91CF91FC
:100490001F910F91FF90EF90DF90CF9008950F93F1
:1004A0001F93CF93DF9300D0CDB7DEB79B012C5FB6
:1004B0003F4F41E050E08A0102C0000F111F2A9512
:1004C000E2F7B02FA02FA09520E030E0E1E0F0E0CF
:1004D00094B3AF01022E02C0440F551F0A94E2F7F5
:1004E000542F5095952394BB95B3492B45BB621768
:1004F000730739F494B39B2B94BB95B39A2395BBA4
:1005000011C094B3A9014C5F5F4F8F0102C0000F6F
:10051000111F4A95E2F7A8014095942394BB95B327
:10052000492345BB2F5F3F4F2430310589F61A829E
:10053000198229813A81243631055CF429813A8176
:100540002F5F3F4F3A83298329813A812436310531
:10055000ACF323B330E0A90102C0559547958A95C5
:10056000E2F7CA0151E0852781700F900F90DF916B
:10057000CF911F910F9108954F925F926F927F924A
:10058000AF92BF92CF92DF92EF92FF920F931F93A1
:10059000CF93DF93CDB7DEB729970FB6F894DEBFC0
:1005A0000FBECDBF09831A832B833C834D835E83AB
:1005B0006F8378878987CD80DE80EF80F8844980DB
:1005C0005A806B807C80C114D104E104F104E9F00D
:1005D000520100E010E081E048165104610471040A
:1005E00089F0C09AC50152DDC098C5014FDD0F5F8B
:1005F0001F4FC801A0E0B0E08C159D05AE05BF05FA
:1006000050F303C0C50142DDF0CF29960FB6F89430
:10061000DEBF0FBECDBFDF91CF911F910F91FF9035
:10062000EF90DF90CF90BF90AF907F906F905F90F2
:100630004F9008958F929F92AF92BF92CF92DF9288
:10064000EF92FF920F931F93CF93DF93CDB7DEB757
:1006500062970FB6F894DEBF0FBECDBF6C0181E28A
:1006600066DDB62EA72E982E892E462F572F682F7F
:10067000792F88E381DE6D837E838F83988781E085
:100680008987C114D10439F1E12CF12CB701CE01D5
:100690000A96D2DE0A851B852C853D854E855F85B1
:1006A000688979898A8968DF2A89222371F00B2D6C
:1006B000B982AA829B828C821A2D292D382D4D81D8
:1006C0005E816F817885898557DF8FEFE81AF80A98
:1006D000EC14FD04D9F662960FB6F894DEBF0FBE97
:1006E000CDBFDF91CF911F910F91FF90EF90DF90E1
:1006F000CF90BF90AF909F908F90089514D0F4DC6E
:1007000012DDB89A60E070E080E090E0C8DE811110
:1007100006C061E070E080E090E0C1DEF3CF84EBE2
:1007200091E088DFEFCF0895A1E21A2EAA1BBB1B30
:10073000FD010DC0AA1FBB1FEE1FFF1FA217B307AD
:10074000E407F50720F0A21BB30BE40BF50B661FC3
:10075000771F881F991F1A9469F760957095809587
:1007600090959B01AC01BD01CF010895F894FFCF96
:10077000376A30376930376730366730366930313D
:100780002130372130373930376A303769303767B1
:10079000303567303569303721303565303767306F
:1007A00035393032213037393035673037693034B8
:1007B0006A30376730356430346530356730373903
:1007C00030353930356930312130372130376A30B2
:1007D0003769303767303667303669303121303726
:1007E0002130373930376A3037693037673037670B
:1007F0003035213037693037653035213037673053
:10080000373930312130356730376930346A303725
:1008100067303464303765303767303721303739E7
:100820003037653037673037683037673037653095
:100830003763303521303739303761303563303503
:100840006830376730376530376530376330376544
:1008500030376330356330376330372130373930E4
:10086000376130356330356830376A303768303754
:10087000673037653037653037673035683037680F
:1008800030372130376A30376C30376D30376D3064
:10089000356C30356A30376830376A30376C30370E
:1008A0006C30356A303568303765303763303765DE
:1008B0003037683037683035673037673037693000
:1008C0003469303721303765303562303721303781
:1008D0006230356530372130376530356230372149
:1008E000303762303565303721303765303562302A
:1008F000372130376230356530372130373930377E
:100900006A303769303767303667303669303121C1
:1009100030352130376A30376930376730346730E7
:100920003769303565303567303539303221303709
:100930002130356730376930346A30356730356497
:1009400030376530346730373930353930356930D4
:10095000312130373930376A3037693037673036D0
:100960006730366930312130372130373930376AD6
:100970003037693037673037673035213037693085
:1009800037653035213037673037393037393032D5
:100990002130372130356730376930346A30376776
:1009A000303464303765303767303721303739308D
:1009B00037653037673037683037673037653037FD
:1009C0006330352130373930376130356330356841
:1009D00030376730376530376530376330376530EB
:1009E0003763303563303563303739303761303510
:1009F0006330356830376A3037683037673037658D
:100A000030376530376730356830356830376A30B1
:100A1000376C30376D30376D30356C30356A303784
:100A20006830376A30376C30376C30376A30376847
:100A30003035683037653037633037653037683088
:100A40003768303567303767303769303469303769
:100A500021303765303562303721303762303565C7
:100A600030372130376530356230372130376230EA
:100A700035653037213037653035623037213037D2
:100A80006230356530352130376A30376930376745
:100A900030366730366930312130372130373930E0
:100AA000376A30376930376730376730352130374C
:100AB000693037653035213037673037393031218B
:100AC00030356730376930346A30376730346430F6
:100AD0003765303567303539303539303569303143
:100AE0002130372130376A30376930376730366721
:100AF00030366930312130352130376A303769304E
:100B000037673037673035213037693037653035F2
:100B10002130376730373930312130356730376928
:100B200030346A3037673034643037653035673099
:100B300037393037653037673037683037673037A7
:100B400065303763303521303739303761303563C0
:100B50003035683037673037653037653037633068
:100B60003765303763303563303563303739303788
:100B70006130356330356830376A30376830376711
:100B80003037653037653037673035683035683035
:100B9000376A30376C30376D30376D30376C3037FF
:100BA0006A30356A30376830376A30376C30376CC6
:100BB00030376A3037683035683037653037633002
:100BC00037653037683037683035673037673037EA
:100BD0006930346930332130376C30376C30376EE0
:100BE00030376C30376930356530376730376930CA
:100BF000346930342130376C30376C30376C3037F3
:100C00006E30376C3037693035653037673037696B
:100C100030346930342130376C30376C30376C30D9
:100C2000376E30376C30376930356530376730377D
:100C30006930346930332130376C30376C30376E7F
:100C400030376C3037693035653037673037693069
:100C5000346930342130376C30376C30376C303792
:100C60006E30376C3037693035653037673037690B
:100C700030346930342130376A30376C30356C307D
:0E0C8000332130376A30376930356930000073
:00000001FF
