S01600006373203134356162206C616220312E737265631B
S113000029C000002FC000002DC000002BC000003C
S113001029C0000027C0000025C0000023C0000044
S113002021C000001FC000001DC000001BC0000054
S113003019C0000017C0000015C0000013C0000064
S113004011C000000FC000000DC000000BC0000074
S113005009C0000011241FBECFE5D8E0DEBFCDBF2C
S11300600ED019C0CDCF089585E083BF12BE82B7EC
S11300708F3FE9F712BE82B78F3FE9F70895F3DFA8
S1130080B89AB998B19905C0C09AEEDFC098ECDF70
S10D0090F9CFC098F7CFF894FFCF22
S9030000FC
