:1000000029C000002FC000002DC000002BC0000040
:1000100029C0000027C0000025C0000023C0000048
:1000200021C000001FC000001DC000001BC0000058
:1000300019C0000017C0000015C0000013C0000068
:1000400011C000000FC000000DC000000BC0000078
:1000500009C0000011241FBECFE5D8E0DEBFCDBF30
:10006000E0D15DC7CDCF00C000C000C000C000C05F
:1000700000C000000895A098A198A898A998089594
:10008000A09AF1DF1DC00895A19AEDDFA098EBDFE3
:10009000A198E9DFA09AE7DF13C00895082EA09A7F
:1000A000E2DF802D0DD0882311F002D0F8CF089523
:1000B000A19AA09AD8DFA198D6DFA098D4CF0895AE
:1000C0000894881F01C0880F59F0A19A18F4000005
:1000D000A09802C0A09A00C0C6DFA198C4DFF3CFE9
:1000E000A19AA098C0DFA198999BFECF88279899E4
:1000F00081E0B9DF99270895882701C081E071E088
:10010000A19AA098B0DFA198AEDF999BFECF88940A
:1001100098990894771FA0F7A19A813011F0A098C0
:1001200001C0A09AA0DFA198999BFECF9CDF872FEA
:1001300099270895CF93DF93D82FC62F8AE3A4DFA2
:100140008D2FBEDF8C2FBCDFB3DFDF91CF91089501
:10015000CF93C82F8AE3A2DF8C2FB2DF8BE394DF2B
:10016000CBDFC82FA5DF8C2FCF9108951F93CF939E
:10017000DF93182F8AE392DF812FA2DF8BE384DFE6
:10018000BBDFC82FD0E08AE389DF81E0810F98DFF1
:100190008BE37ADFB1DFD82B8BDFCE01DF91CF91FC
:1001A0001F910895BC0188E09802812D990B1124BC
:1001B000892B11F0706E01C07F71882777FD8095C3
:1001C000982F7ED324E237E94FE75BE32DC40895EF
:1001D00052DF68E08DE2AEDF81E3BADF807F682F17
:1001E0006B6081E3A7DF60E088E3A4CF0895CF933D
:1001F000DF93EC0182E3BADFD5DF688379838A83FA
:100200009B8384E3B3DFCEDF6C837D838E839F8308
:1002100086E3ACDFC7DF688779878A879B87DF91B2
:10022000CF91089523E023BF3EEF08C032BF28B727
:10023000216028BFA89508B600FEFDCF0197B0F752
:1002400013BE089508958F929F92AF92BF92CF925E
:10025000DF92EF92FF92CF93DF93FC01C280D380B5
:10026000E480F580FB0182809380A480B580A501A5
:100270009401C701B601D4D3181684F0C1E0D0E0D0
:10028000A5019401C701B60115D3882314F0C0E07D
:10029000D0E0882799278C1B9D0B02C081E090E05D
:1002A000DF91CF91FF90EF90DF90CF90BF90AF9014
:1002B0009F908F9008950F931F93CF93DF93DB98B8
:1002C000DC988C01015F1F4FC0E0D0E0C130D10548
:1002D00071F01CF4209741F012C0C230D10551F0EA
:1002E000C330D10551F00BC0C198C09808C0C19A65
:1002F000C09805C0C198C09A02C0C19AC09AF801BE
:10030000D8011F978C91813011F4AA9A01C0AA9844
:10031000DF011E978C91813011F4AB9A01C0AB982C
:10032000DF011D978C91813011F4AC9A01C0AC981B
:10033000DF011C978C91813011F4AD9A01C0AD980A
:10034000DF011B978C91813011F4AE9A01C0AE98F9
:10035000DF011A978C91813011F4AF9A01C0AF98E8
:10036000DF0119978C91813011F4DE9A01C0DE987B
:10037000DF0118978C91813011F4DD9A01C0DD986E
:10038000DB9ADB98DF0117978C91813011F4AA9AE0
:1003900001C0AA98DF0116978C91813011F4AB9AB5
:1003A00001C0AB98DF0115978C91813011F4AC9AA4
:1003B00001C0AC98DF0114978C91813011F4AD9A93
:1003C00001C0AD98DF0113978C91813011F4AE9A82
:1003D00001C0AE98DF0112978C91813011F4AF9A71
:1003E00001C0AF98DF0111978C91813011F4DE9A32
:1003F00001C0DE988081813011F4DD9A01C0DD9862
:10040000DC9ADC9888EC90E00DDF2196005F1F4FAE
:10041000C430D10509F05ACFDF91CF911F910F91D0
:100420000895CF93DF93CDB7DEB7CE5ED1400FB640
:10043000F894DEBF0FBECDBF05DFCADEA29AA39A35
:10044000A49AA59AA69AA79AD39AD49AD59AD69AF4
:10045000B89AB99AFE013196CE018F5B9F4F1192E7
:10046000E817F907E1F7CE01835B9F4FC751DE4FD5
:100470008883C95ED140C651DE4F9883CA5ED140A1
:100480009E012F5F3F4F3901C351DE4F2883CD5E60
:10049000D140C251DE4F7882CE5ED140C951DE4F8D
:1004A0001882C75ED140C851DE4F1882C85ED14065
:1004B00030E0C352DE4F3883CD5DD140A0E0C25260
:1004C000DE4FA883CE5DD140FC01E054FF4FC55103
:1004D000DE4FF983E883CB5ED140CE018F5B9F4F27
:1004E00086DE25968CAD9DADAEADBFAD2597C752CE
:1004F000DE4F88839983AA83BB83C95DD140299647
:100500008CAD9DADAEADBFAD2997C153DE4F888395
:100510009983AA83BB83CF5CD1402D968CAD9DADD2
:10052000AEADBFAD2D97CD51DE4F88839983AA83A1
:10053000BB83C35ED140C751DE4F9881C95ED140B5
:10054000C152DE4F9883CF5DD140C651DE4FA881A6
:10055000CA5ED140C052DE4FA883C05ED140CF51A9
:10056000DE4F1882C15ED140CE51DE4F1882C25E8E
:10057000D140C952DE4F1882C75DD140C852DE4F0C
:100580001882C85DD140B6C0F301EE0DFF1D108288
:10059000F601F182E082B801882777FD8095982FD7
:1005A0008FD1C153DE4F288139814A815B81CF5C75
:1005B000D1403AD29B01AC01C501B40117D1A201CF
:1005C000910114D1D60112966D937D938D939C93D6
:1005D00015970F5F1F4FBFEFEB1AFB0AE6E0CE0E39
:1005E000D11C0430110581F6C353DE4F28813981B7
:1005F000CD5CD14021503109C353DE4F398328836C
:10060000CD5CD140CD52DE4F88819981C35DD14010
:100610004096CD52DE4F99838883C35DD140CB5243
:10062000DE4FA881B981C55DD140A05ABF4FCB52E2
:10063000DE4FB983A883C55DD1402C3F3F4F71F198
:10064000C353DE4FE881F981CD5CD140BF018827DB
:1006500077FD8095982F34D1C752DE4F288139819C
:100660004A815B81C95DD140DFD14B015C01CB5236
:10067000DE4FC880D980C55DD140CD52DE4FE880C5
:10068000F980C35DD140C352DE4F0881CD5DD140BA
:10069000C252DE4F1881CE5DD14076CFC952DE4FB7
:1006A00028813981C75DD14021503109C952DE4FBF
:1006B00039832883C75DD140CF51DE4F888199812E
:1006C000C15ED1400496CF51DE4F99838883C15ECD
:1006D000D140C152DE4FA881B981CF5DD14058963B
:1006E000C152DE4FB983A883CF5DD1402C3F3F4F2D
:1006F00009F444C0C952DE4FE881F981C75DD14099
:10070000BF01882777FD8095982FDAD0CD51DE4F35
:10071000288139814A815B81C35ED14085D11B012B
:100720002C01C152DE4F28813981CF5DD140CB529F
:10073000DE4F39832883C55DD140CF51DE4F88819C
:100740009981C15ED140CD52DE4F99838883C35DCC
:10075000D140C951DE4F9881C75ED140C353DE4FAF
:100760009883CD5CD140C851DE4FA881C85ED1408E
:10077000C253DE4FA883CE5CD14062CF23E231E08A
:1007800046E050E060E470E0C751DE4F8881C95E0A
:10079000D140C651DE4F9881CA5ED140E6D1C751E3
:1007A000DE4FE881C95ED140C651DE4FF881CA5E96
:1007B000D140C551DE4F88819981CB5ED140A08167
:1007C000B181A60DB71D21E02C933696E817F907E5
:1007D000B1F7C351DE4F8881CD5ED140C251DE4FAB
:1007E0009881CE5ED14067DD78CE5058BB27AA27CE
:1007F0000ED0DCC0CDD030F0D2D020F031F49F3F0D
:1008000011F41EF4C2C00EF4E095E7FBB8C0E92F66
:10081000DED080F3BA17620773078407950718F0D4
:1008200071F49EF5F6C00EF4E0950B2EBA2FA02DB4
:100830000B01B90190010C01CA01A0011124FF278D
:10084000591B99F0593F50F4503E68F11A16F04088
:10085000A22F232F342F4427585FF3CF4695379587
:100860002795A795F0405395C9F77EF41F16BA0B4C
:10087000620B730B840BBAF09150A1F0FF0FBB1FFA
:10088000661F771F881FC2F70EC0BA0F621F731F43
:10089000841F48F4879577956795B795F7959E3FA0
:1008A00008F0B3CF9395880F08F09927EE0F97952E
:1008B0008795089540D008F481E00895E89409C030
:1008C00097FB3EF490958095709561957F4F8F4F83
:1008D0009F4F9923A9F0F92F96E9BB279395F69599
:1008E000879577956795B795F111F8CFFAF4BB0F17
:1008F00011F460FF1BC06F5F7F4F8F4F9F4F16C07B
:10090000882311F096E911C0772321F09EE8872F04
:10091000762F05C0662371F096E8862F70E060E0C0
:100920002AF09A95660F771F881FDAF7880F969539
:10093000879597F90895990F0008550FAA0BE0E8DD
:10094000FEEF16161706E807F907C0F01216130691
:10095000E407F50798F0621B730B840B950B39F4D1
:100960000A2661F0232B242B252B21F408950A2637
:1009700009F4A140A6958FEF811D811D089597F977
:100980009F6780E870E060E008959FEF80EC089535
:1009900000240A941616170618060906089500245E
:1009A0000A9412161306140605060895092E0394D8
:1009B000000C11F4882352F0BB0F40F4BF2B11F44C
:1009C00060FF04C06F5F7F4F8F4F9F4F089557FDAB
:1009D0009058440F551F59F05F3F71F04795880FAD
:1009E00097FB991F61F09F3F79F087950895121644
:1009F00013061406551FF2CF4695F1DF08C01616F0
:100A000017061806991FF1CF8695710561050894A0
:100A10000895E894BB2766277727CB0197F90895B7
:100A20008ADF08F48FEF08950BD0C0CFB1DF28F034
:100A3000B6DF18F0952309F0A2CFA7CF1124EACF93
:100A4000C6DFA0F3959FD1F3950F50E0551F629F2D
:100A5000F001729FBB27F00DB11D639FAA27F00D17
:100A6000B11DAA1F649F6627B00DA11D661F829F3E
:100A70002227B00DA11D621F739FB00DA11D621F23
:100A8000839FA00D611D221F749F3327A00D611D40
:100A9000231F849F600D211D822F762F6A2F112422
:100AA0009F5750408AF0E1F088234AF0EE0FFF1F75
:100AB000BB1F661F771F881F91505040A9F79E3FAC
:100AC000510570F05CCFA6CF5F3FECF3983EDCF3AE
:100AD000869577956795B795F795E7959F5FC1F7E9
:100AE000FE2B880F911D9695879597F90895DC0147
:100AF000FB018C9190819D93819341505109141673
:100B00001506BCF30895A0E0B0E0E8E8F5E0DAC12E
:100B10006C017B018A01E901F9010995B80197FF90
:100B20000FC0C701FE01099597FD08C0B801C601B5
:100B3000FE01099597FD14C0860112C0870110C0FF
:100B4000C701FE0109951816190644F0B801C6013F
:100B5000FE01099597FF04C0C60103C0C70101C08B
:100B6000C801CDB7DEB7E8E0C9C1ACE0B0E0EAEB60
:100B7000F5E09EC18C016B015C874B877901519533
:100B80004195510958874F832B853C85200F311F94
:100B90003A83298337E0C316D10468F589809A80A7
:100BA0004B855C85C49E5001C59EB00CD49EB00C94
:100BB0001124A00EB11E8A149B0408F062C13401F6
:100BC0000615170598F463018B859C85C81AD90A08
:100BD000B301C601F7010995181619063CF44B85B7
:100BE0005C85B601C30183DF3601EACF2B853C85E6
:100BF000820E931EE0CFC601969587954B855C8546
:100C0000849F5001859FB00C949FB00C1124A00EBE
:100C1000B11EC60101979E838D8397E0C916D1044A
:100C200009F448C0ED81FE81E49F3001E59F700C1E
:100C3000F49F700C1124600E711EF9E2CF16D104DE
:100C400090F1C60123E0969587952A95E1F7849F58
:100C50004001859F900C949F900C11241401220C4C
:100C6000331CA801420D531DB801680D791D970171
:100C7000C80149DF2C01A501480D591D91948194AB
:100C800091089701B501C501880D991D3CDF5C01F4
:100C9000B301680D791D9701A301C301821993095E
:100CA00032DF3C0101C028019701A301B501C20157
:100CB0002ADF5C014B855C85B501C80118DF89809E
:100CC0009A804D815E818B859C85489F9001499FCC
:100CD000300D589F300D11243C832B833901600E59
:100CE000711E1301540120E030E06A147B0408F403
:100CF0003FC0B801C50129873A87F70109952985C1
:100D00003A8518161906A4F1892B81F44B855C8568
:100D1000B50189819A81EBDE29813A814B855C8519
:100D2000240F351F3A83298321E030E08B859C8591
:100D3000A80EB91EDACFB801C30129873A87F70197
:100D4000099523014B855C85441A550A29853A8506
:100D500097FD12C0892B59F44B855C85B101C30105
:100D6000C6DE2B853C85221A330A21E030E03201B1
:100D70006A147B0400F70DC04B855C85B301C50187
:100D8000B6DE4B855C85A40EB51E320121E030E055
:100D9000ACCF232B09F44BC04B805C804F8158852E
:100DA000441A550A400E511E650129813A81C21A22
:100DB000D30AA901401B510BC416D5060CF4A60199
:100DC000141615062CF4B501641B750BC8018FDED3
:100DD000410186189708A201421953098B859C8509
:100DE000481B590B8416950608F4A4011416150621
:100DF0002CF4B201641B750BC50179DEEB85FC8513
:100E0000EC15FD0538F4C601BF013ED09701AF01D6
:100E1000C801ABDE2B853C852815390590F582018C
:100E200008191909C401B9012FD06B01ADCE8B850A
:100E30009C85C89E5001C99EB00CD89EB00C112450
:100E4000A00EB11E8A149B04E0F4340106151705A8
:100E500098F463018B859C85C81AD90AB301C60131
:100E6000F7010995181619063CF44B855C85B60107
:100E7000C3013DDE3601EACF2B853C85820E931EF1
:100E8000E1CF2C96E2E130C0AA1BBB1B51E107C0A9
:100E9000AA1FBB1FA617B70710F0A61BB70B881F0A
:100EA000991F5A95A9F780959095BC01CD01089599
:100EB0002F923F924F925F926F927F928F929F926A
:100EC000AF92BF92CF92DF92EF92FF920F931F9358
:100ED000CF93DF93CDB7DEB7CA1BDB0B0FB6F89409
:100EE000DEBF0FBECDBF09942A88398848885F8449
:100EF0006E847D848C849B84AA84B984C884DF80BA
:100F0000EE80FD800C811B81AA81B981CE0FD11D9D
:100F10000FB6F894DEBF0FBECDBFED010895F89473
:020F2000FFCF01
:00000001FF
