S00C00004C6162342E73726563D5
S113000029C000003BC0000039C0000037C0000018
S113001035C0000033C0000031C000002FC0000014
S11300202DC000002BC0000029C0000027C0000024
S113003025C0000023C0000021C000001FC0000034
S11300401DC000001BC0000019C0000017C0000044
S113005015C0000011241FBECFE5D8E0DEBFCDBF20
S113006010E0A0E6B0E0EEEEF3E102C005900D92E0
S1130070AC3BB107D9F73BD10C94F509C1CF23E0D0
S113008023BF33E808C032BF28B7216028BFA89532
S113009008B600FEFDCF0197B0F713BE089508958A
S11300A0662311F0C09A01C0C098C19882BB8FEF3B
S11300B081BBC29A000000000000C2980895C09855
S11300C0C19A11BA90B3C29A00000000000011BA9C
S11300D090B3C29899239CF3E3CF0895B89AB99A40
S11300E0BA9A80E190E0CBDF60E080E3D9DF85E07D
S11300F090E0C5DF60E080E3D3DF81E090E0BFDF24
S113010060E08CE3DCDF60E08CE0D9DF60E086E077
S1130110D6DF60E081E0D3CF089560E081E0CFCF07
S11301200895CF93C62F98E2899FC00D112460E0F3
S113013082E0C5DFCC2329F060E084E1C0DFC15058
S1130140D9F7CF910895CF93DF93EC012196FC0169
S11301508081882329F061E0B2DF89918111FBCF8E
S1130160DF91CF9108950F931F93CF93DF9300D026
S1130170CDB7DEB79B012C5F3F4F41E050E08A01D1
S113018002C0000F111F2A95E2F7B02FA02FA095EF
S113019020E030E0E1E0F0E094B3AF01022E02C0D1
S11301A0440F551F0A94E2F7542F5095952394BB9E
S11301B095B3492B45BB6217730739F494B39B2B52
S11301C094BB95B39A2395BB11C094B3A9014C5F1A
S11301D05F4F8F0102C0000F111F4A95E2F7A8017B
S11301E04095942394BB95B3492345BB2F5F3F4F60
S11301F02430310589F61A82198229813A812436FC
S113020031055CF429813A812F5F3F4F3A8329837A
S113021029813A8124363105ACF323B330E0A901B6
S113022002C0559547958A95E2F7CA0151E08527A2
S113023081700F900F90DF91CF911F910F910895CE
S1130240AF92BF92CF92DF92EF92FF920F931F93E0
S1130250CF93DF936C017C0100E010E0A12CB12C62
S113026021C0BE01C8017FDF882381F0F701EC0FB4
S1130270FD1F808181110AC0C801880F991F080FD2
S1130280191FC00FD11FCE0101961FC02196C33084
S1130290D10539F70F5F1F4F84E0E80EF11C0330DE
S11302A0110519F0CA2DDB2DDCCF61E070E083E08D
S11302B090E059DF882339F0F601858590E0919527
S11302C08195910902C08FEF9FEFDF91CF911F912C
S11302D00F91FF90EF90DF90CF90BF90AF90089573
S11302E0369A349BFECF349A84B195B10895CF9356
S11302F0DF93CDB7DEB7CE5ED1090FB6F894DEBF7B
S11303000FBECDBFCCDEEADEFE0131961E2F0F2FCD
S1130310CE0141961192E817F907E1F7FEDE3E9A05
S1130320379A80E690E00FDF812C912C412C512CE0
S1130330C352DF4F1882CD5DD040C252DF4F1882C6
S1130340CE5DD040C152DF4F1882CF5DD040C05245
S1130350DF4F1882C05ED040CF51DF4F1882C15E9C
S1130360D040CE51DF4F1882C25ED040CD51DF4F16
S11303701882C35ED040CC51DF4F1882C45ED04097
S1130380C551DF4F1882CB5ED040C451DF4F188275
S1130390CC5ED04088ECC351DF4F8883CD5ED04023
S11303A092ECC251DF4F9883CE5ED040C951DF4FEB
S11303B01882C75ED040C851DF4F1882C85ED04053
S11303C0A8ECC751DF4FA883C95ED040B2E4C65140
S11303D0DF4FB883CA5ED0400F2EF4E66F2E712C27
S11303E0F02DFE01EB58FF4FC752DF4FF983E8832E
S11303F0C95DD040CE014196C552DF4F99838883B1
S1130400CB5DD040CB51DF4F1883C55ED040CA517D
S1130410DF4F0883C65ED040212C312C91E0891631
S1130420910481F0A2E08A16910409F413C18114A5
S1130430910409F01BC1CE01019602DF019709F076
S1130440B6C2B8C284EF91E01ADE4ADFBC0180E094
S113045090E0CCD320E030E040EA50E47DD420E0CA
S113046030E040E85AE378D4C352DF4F6883CD5D6F
S1130470D040C252DF4F7883CE5DD040C152DF4FAF
S11304808883CF5DD040C052DF4F9883C05ED04098
S1130490BFEF4B1A5B0A262F372F482F592FC55110
S11304A0DF4F6881CB5ED040C451DF4F7881CC5E92
S11304B0D040C351DF4F8881CD5ED040C251DF4F61
S11304C09881CE5ED040F5D2882344F5C352DF4FE5
S11304D0E881CD5DD040C551DF4FE883CB5ED0408D
S11304E0C252DF4FF881CE5DD040C451DF4FF88354
S11304F0CC5ED040C152DF4F8881CF5DD040C35124
S1130500DF4F8883CD5ED040C052DF4F9881C05EFC
S1130510D040C251DF4F9883CE5ED040C352DF4FEC
S11305202881CD5DD040C252DF4F3881CE5DD040AE
S1130530C152DF4F4881CF5DD040C052DF4F588158
S1130540C05ED040C951DF4F6881C75ED040C851FA
S1130550DF4F7881C85ED040C751DF4F8881C95EC4
S1130560D040C651DF4F9881CA5ED040F1D31816EF
S113057044F5C352DF4FA881CD5DD040C951DF4F50
S1130580A883C75ED040C252DF4FB881CE5DD04051
S1130590C851DF4FB883C85ED040C152DF4FE881F5
S11305A0CF5DD040C751DF4FE883C95ED040C05211
S11305B0DF4FF881C05ED040C651DF4FF883CA5E7A
S11305C0D040C352DF4F2881CD5DD040C252DF4FAF
S11305D03881CE5DD040C152DF4F4881CF5DD040DD
S11305E0C052DF4F5881C05ED040CF51DF4F688189
S11305F0C15ED040CE51DF4F7881C25ED040CD5134
S1130600DF4F8881C35ED040CC51DF4F9881C45EF8
S1130610D040EBD1CF51DF4F6883C15ED040CE5183
S1130620DF4F7883C25ED040CD51DF4F8883C35EF5
S1130630D040CC51DF4F9883C45ED040CE010196A8
S1130640FFDD029709F4BAC1CE010196F9DD0397E3
S1130650E9F400C1CE010196F3DD019709F4B3C1B9
S1130660CE010196EDDD039789F44BC18114910409
S113067069F460E080E055DD87E690E064DD60E0E9
S113068081E04FDD88E790E05EDDA1C120E030E04D
S113069048EC52E4C551DF4F6881CB5ED040C45171
S11306A0DF4F7881CC5ED040C351DF4F8881CD5E6F
S11306B0D040C251DF4F9881CE5ED0404DD365D239
S11306C08B0120E030E048EC52E4C352DF4F6881F4
S11306D0CD5DD040C252DF4F7881CE5DD040C15253
S11306E0DF4F8881CF5DD040C052DF4F9881C05E1C
S11306F0D04032D34AD26B017C01C801B3018FD3FD
S11307009F938F937F936F93C601B30188D39F9375
S11307108F937F936F93A9E8B0E0BF93AF93C652D2
S1130720DF4FF881CA5DD040FF93C752DF4F888105
S1130730C95DD0408F939AD3B201882777FD809505
S1130740982F56D29B01AC01CF51DF4F6881C15E17
S1130750D040CE51DF4F7881C25ED040CD51DF4FC3
S11307608881C35ED040CC51DF4F9881C45ED040B5
S1130770A4D120E030E048EC52E4EED206D28B0162
S113078020E030E048EC52E4C951DF4F6881C75E95
S1130790D040C851DF4F7881C85ED040C751DF4F89
S11307A08881C95ED040C651DF4F9881CA5ED0406F
S11307B0D3D2EBD16B017C01C801B30130D39F9339
S11307C08F937F936F93C601B30129D39F938F9324
S11307D07F936F93A2EAB0E0BF93AF93C452DF4F0D
S11307E0F881CC5DD040FF93C552DF4F8881CB5D4B
S11307F0D0408F933BD360E080E093DCCE018B58F4
S11308009F4FA1DC60E081E08CDCCE0141969BDC53
S11308100FB6F894DEBF0FBECDBFD9C0B701C60175
S1130820A2DCF80181938F01FFEFEF1AFF0A84E045
S1130830E816F10499F79FEFC91AD90AA4E0AA0EA1
S1130840B11CB4E0CB16D10409F4E8CD8501E22C47
S1130850F32CE4CF412C512CC352DF4F1882CD5DD1
S1130860D040C252DF4F1882CE5DD040C152DF4F1C
S11308701882CF5DD040C052DF4F1882C05ED04096
S1130880CF51DF4F1882C15ED040CE51DF4F188266
S1130890C25ED040CD51DF4F1882C35ED040CC51F0
S11308A0DF4F1882C45ED040C551DF4F1882CB5E43
S11308B0D040C451DF4F1882CC5ED040E8ECC35125
S11308C0DF4FE883CD5ED040F2ECC251DF4FF883B6
S11308D0CE5ED040C951DF4F1882C75ED040C851A8
S11308E0DF4F1882C85ED04088ECC751DF4F888341
S11308F0C95ED04092E4C651DF4F9883CA5ED040AF
S113090056C0412C512CC352DF4F1882CD5DD040CC
S1130910C252DF4F1882CE5DD040C152DF4F1882E1
S1130920CF5DD040C052DF4F1882C05ED040CF515F
S1130930DF4F1882C15ED040CE51DF4F1882C25EB5
S1130940D040CD51DF4F1882C35ED040CC51DF4F31
S11309501882C45ED040C551DF4F1882CB5ED040B0
S1130960C451DF4F1882CC5ED040A8ECC351DF4F96
S1130970A883CD5ED040B2ECC251DF4FB883CE5EC7
S1130980D040C951DF4F1882C75ED040C851DF4FF5
S11309901882C85ED040E8ECC751DF4FE883C95ED7
S11309A0D040F2E4C651DF4FF883CA5ED040812CB8
S11309B0912C5FCE88248394912C68CE68948824EB
S11309C081F8912C63CE88248394912C5FCECB51F3
S11309D0DF4FA880C55ED040CA51DF4FB880C65EE5
S11309E0D040C12CD12C32CF5058BB27AA270ED0CF
S11309F075C166D130F06BD120F031F49F3F11F412
S1130A001EF45BC10EF4E095E7FB51C1E92F77D1E9
S1130A1080F3BA17620773078407950718F071F417
S1130A209EF58FC10EF4E0950B2EBA2FA02D0B016D
S1130A30B90190010C01CA01A0011124FF27591B1F
S1130A4099F0593F50F4503E68F11A16F040A22F25
S1130A50232F342F4427585FF3CF46953795279596
S1130A60A795F0405395C9F77EF41F16BA0B620B95
S1130A70730B840BBAF09150A1F0FF0FBB1F661FDC
S1130A80771F881FC2F70EC0BA0F621F731F841F1F
S1130A9048F4879577956795B795F7959E3F08F045
S1130AA0B3CF9395880F08F09927EE0F9795879504
S1130AB00895D9D008F481E008950CD00FC107D16E
S1130AC040F0FED030F021F45F3F19F0F0C0511136
S1130AD039C1F3C014D198F39923C9F35523B1F361
S1130AE0951B550BBB27AA2762177307840738F099
S1130AF09F5F5F4F220F331F441FAA1FA9F333D0F8
S1130B000E2E3AF0E0E830D091505040E695001CAB
S1130B10CAF729D0FE2F27D0660F771F881FBB1F67
S1130B20261737074807AB07B0E809F0BB0B802D41
S1130B30BF01FF2793585F4F2AF09E3F510568F08D
S1130B40B6C000C15F3FECF3983EDCF38695779521
S1130B506795B795F7959F5FC9F7880F911D96958F
S1130B60879597F90895E1E0660F771F881FBB1FEB
S1130B70621773078407BA0720F0621B730B840B98
S1130B80BA0BEE1F88F7E095089504D06894B1116C
S1130B90D9C00895BCD088F09F5790F0B92F9927F9
S1130BA0B751A0F0D1F0660F771F881F991F1AF074
S1130BB0BA95C9F712C0B13081F0C3D0B1E008953D
S1130BC0C0C0672F782F8827B85F39F0B93FCCF3BE
S1130BD0869577956795B395D9F73EF4909580956A
S1130BE0709561957F4F8F4F9F4F0895E89409C08A
S1130BF097FB3EF490958095709561957F4F8F4F4C
S1130C009F4F9923A9F0F92F96E9BB279395F69561
S1130C10879577956795B795F111F8CFFAF4BB0FDF
S1130C2011F460FF1BC06F5F7F4F8F4F9F4F16C043
S1130C30882311F096E911C0772321F09EE8872FCD
S1130C40762F05C0662371F096E8862F70E060E089
S1130C502AF09A95660F771F881FDAF7880F969502
S1130C60879597F90895990F0008550FAA0BE0E8A6
S1130C70FEEF16161706E807F907C0F0121613065A
S1130C80E407F50798F0621B730B840B950B39F49A
S1130C900A2661F0232B242B252B21F408950A2600
S1130CA009F4A140A6958FEF811D811D089597F940
S1130CB09F6780E870E060E008959FEF80EC0895FE
S1130CC000240A9416161706180609060895002427
S1130CD00A9412161306140605060895092E0394A1
S1130CE0000C11F4882352F0BB0F40F4BF2B11F415
S1130CF060FF04C06F5F7F4F8F4F9F4F089557FD74
S1130D009058440F551F59F05F3F71F04795880F75
S1130D1097FB991F61F09F3F79F08795089512160C
S1130D2013061406551FF2CF4695F1DF08C01616B8
S1130D3017061806991FF1CF869571056105089469
S1130D400895E894BB2766277727CB0197F9089580
S1130D508ADF08F48FEF08950BD0C0CFB1DF28F0FD
S1130D60B6DF18F0952309F0A2CFA7CF1124EACF5C
S1130D70C6DFA0F3959FD1F3950F50E0551F629FF6
S1130D80F001729FBB27F00DB11D639FAA27F00DE0
S1130D90B11DAA1F649F6627B00DA11D661F829F07
S1130DA02227B00DA11D621F739FB00DA11D621FEC
S1130DB0839FA00D611D221F749F3327A00D611D09
S1130DC0231F849F600D211D822F762F6A2F1124EB
S1130DD09F5750408AF0E1F088234AF0EE0FFF1F3E
S1130DE0BB1F661F771F881F91505040A9F79E3F75
S1130DF0510570F05CCFA6CF5F3FECF3983EDCF377
S1130E00869577956795B795F795E7959F5FC1F7B1
S1130E10FE2B880F911D9695879597F9089597FB5A
S1130E20072E16F4009406D077FD08D00BD007FCEB
S1130E3005D03EF4909581959F4F089570956195E6
S1130E407F4F0895AA1BBB1B51E107C0AA1FBB1FFC
S1130E50A617B70710F0A61BB70B881F991F5A9542
S1130E60A9F780959095BC01CD010895AEE0B0E05E
S1130E70EBE3F7E091C20D891E8986E08C831A8327
S1130E8009838FEF9FE79E838D83AE01475E5F4F9B
S1130E906F89788DCE01019608D0EF81F885E00F37
S1130EA0F11F10822E96E4E093C2ACE0B0E0EAE5D4
S1130EB0F7E064C27C016B018A01FC01178216828F
S1130EC0838181FFB0C1CE0101964C01F70193816A
S1130ED0F60193FD859193FF81916F01882309F4B5
S1130EE09EC1853239F493FD859193FF81916F0101
S1130EF0853221F4B70190E0B1D1E8CF512C312CE7
S1130F0020E02032A0F48B3269F030F4803259F0C2
S1130F10833269F420612CC08D3239F0803339F486
S1130F20216026C02260246023C0286021C027FDE0
S1130F3027C030ED380F3A3078F426FF06C0FAE0C7
S1130F405F9E300D1124532E13C08AE0389E300D5D
S1130F501124332E20620CC08E3221F426FD5FC191
S1130F60206406C08C3611F4206802C0883641F42F
S1130F70F60193FD859193FF81916F018111C1CF9A
S1130F80982F9F7D9554933028F40C5F1F4FFFE3F7
S1130F90F9830DC0833631F0833771F0833509F05E
S1130FA057C021C0F801808189830E5F1F4F4424FC
S1130FB04394512C540114C03801F2E06F0E711C9B
S1130FC0F801A080B18026FF03C0652D70E002C047
S1130FD06FEF7FEFC5012C8736D12C0183012C855F
S1130FE02F77222E16C03801F2E06F0E711CF80123
S1130FF0A080B18026FF03C0652D70E002C06FEFB2
S11310007FEFC5012C8714D12C012C852068222E5A
S1131010830123FC19C0832D90E048165906A0F4DF
S1131020B70180E290E01AD13A94F5CFF50127FC9C
S1131030859127FE81915F01B70190E00FD13110B6
S11310403A94F1E04F1A51084114510479F7DEC083
S1131050843611F0893631F5F80127FF07C0608125
S11310607181828193810C5F1F4F08C060817181FF
S1131070882777FD8095982F0E5F1F4F2F76B22E0D
S113108097FF09C090958095709561957F4F8F4F1C
S11310909F4F2068B22E2AE030E0A40111D1A82E7F
S11310A0A81843C0853729F42F7EB22E2AE030E0F9
S11310B025C0F22FF97FBF2E8F36C1F018F4883582
S11310C079F0ADC0803719F0883721F0A8C02F2FF0
S11310D02061B22EB4FE0DC08B2D8460B82E09C0E1
S11310E024FF0AC09F2F9660B92E06C028E030E086
S11310F005C020E130E002C020E132E0F801B7FE93
S113110007C060817181828193810C5F1F4F06C08B
S11311106081718180E090E00E5F1F4FA401D0D008
S1131120A82EA818FB2DFF77BF2EB6FE0BC02B2DC3
S11311302E7FA51450F4B4FE0AC0B2FC08C02B2DB7
S11311402E7E05C07A2C2B2D03C07A2C01C0752C61
S113115024FF0DC0FE01EA0DF11D8081803311F4DE
S1131160297E09C022FF06C07394739404C0822FA1
S1131170867809F0739423FD12C020FF06C05A2C10
S1131180731418F4530C5718732C731460F4B701C8
S113119080E290E02C8762D073942C85F6CF731490
S11311A010F4371801C0312C24FF11C0B70180E3BB
S11311B090E02C8753D02C8522FF16C021FF03C05A
S11311C088E590E002C088E790E0B7010CC0822F68
S11311D0867851F021FD02C080E201C08BE227FD38
S11311E08DE2B70190E03AD0A51430F4B70180E362
S11311F090E034D05A94F8CFAA94F401EA0DF11D8A
S11312008081B70190E02AD0A110F6CF332009F4F1
S11312105DCEB70180E290E021D03A94F7CFF70198
S11312208681978102C08FEF9FEF2C96E2E1C2C0C6
S1131230FC010590615070400110D8F7809590959D
S11312408E0F9F1F0895FC016150704001900110A2
S1131250D8F7809590958E0F9F1F08950F931F9335
S1131260CF93DF93182F092FEB018B8181FD03C0EE
S11312708FEF9FEF20C082FF10C04E815F812C81D1
S11312803D81421753077CF4E881F9819F012F5F68
S11312903F4F39832883108306C0E885F985812F61
S11312A00995892B29F72E813F812F5F3F4F3F837B
S11312B02E83812F902FDF91CF911F910F9108954D
S11312C0FA01AA27283051F1203181F1E8946F9373
S11312D06E7F6E5F7F4F8F4F9F4FAF4FB1E03ED019
S11312E0B4E03CD0670F781F891F9A1FA11D680FB7
S11312F0791F8A1F911DA11D6A0F711D811D911DEA
S1131300A11D20D009F468943F912AE0269F11245E
S11313103019305D3193DEF6CF010895462F4770C2
S1131320405D4193B3E00FD0C9F7F6CF462F4F701D
S1131330405D4A3318F0495D31FD4052419302D07B
S1131340A9F7EACFB4E0A695979587957795679521
S1131350BA95C9F700976105710508959B01AC0121
S11313600A2E06945795479537952795BA95C9F748
S1131370620F731F841F951FA01D08952F923F9223
S11313804F925F926F927F928F929F92AF92BF9291
S1131390CF92DF92EF92FF920F931F93CF93DF933D
S11313A0CDB7DEB7CA1BDB0B0FB6F894DEBF0FBE9A
S11313B0CDBF09942A88398848885F846E847D84E7
S11313C08C849B84AA84B984C884DF80EE80FD80E9
S11313D00C811B81AA81B981CE0FD11D0FB6F8945F
S11113E0DEBF0FBECDBFED010895F894FFCF20
S11313EE63686565736500313A2D2D2D2D562032B7
S11313FE3A2D2D2D2D562000333A2D2D2D2D5620E0
S113140E343A2D2D2D2D562000313A2531692E25B5
S113141E3032695620323A2531692E2530326956DA
S113142E2000333A2531692E253032695620343A5C
S10F143E2531692E25303269562000004B
S9030000FC
