S0140000637320313435206C616220322E73726563DF
S113000029C0000043C0000041C000003FC0000000
S11300103DC000003BC0000039C0000037C00000F4
S113002035C0000033C0000031C000002FC0000004
S11300302DC000002BC0000029C0000027C0000014
S113004025C0000023C0000021C000001FC0000024
S11300501DC0000011241FBECFE5D8E0DEBFCDBF18
S113006011E0A0E6B0E0E0EDF3E102C005900D92EE
S1130070AE31B107D9F721E0AEE1B1E001C01D9284
S1130080A432B207E1F7A7D30C94E609B9CF0895D7
S11300908FE081BD089523E023BF33E808C032BF59
S11300A028B7216028BFA89508B600FEFDCF0197A8
S11300B0B0F713BE0895662311F0D89A01C0D898FA
S11300C0D99882BB8FEF81BBDA9A00000000000050
S11300D0DA980895D898D99A11BA90B3DA9A0000A8
S11300E00000000011BA90B3DA9899239CF3E3CF8F
S11300F00895D09AD19AD29A80E190E0CCDF60E062
S113010080E3D9DF85E090E0C6DF60E080E3D3DF01
S113011081E090E0C0DF60E08CE3DCDF60E08CE055
S1130120D9DF60E086E0D6DF60E081E0D3CF0895D8
S113013060E081E0CFCF0895CF93C62F98E2899FE6
S1130140C00D112460E082E0C5DFCC2329F060E01B
S113015084E1C0DFC150D9F7CF910895CF93DF93E5
S1130160EC012196FC018081882329F061E0B2DF53
S113017089918111FBCFDF91CF910895AC018370F8
S11301809927892B61F59A013695279536952795F8
S1130190ABE7B4E14DD69695879564E6689F9001E8
S11301A0699F300D112442175307D9F49A013295EF
S11301B022952F7023273F702327AEE3BAE038D669
S11301C020E931E0829FB001839F700D929F700DF2
S11301D0112481E04617570729F080E0089580E054
S11301E0089581E008956C5F7F4F21E030E0062E92
S11301F002C0220F331F0A94E2F7B22FB095A22F48
S113020024E030E0E1E0F0E094B3AF01022E02C05C
S1130210440F551F0A94E2F7492B44BB6217730736
S113022021F495B39B2395BB03C095B39A2B95BB3F
S11302302F5F3F4F2830310539F794B321E030E088
S1130240082E02C0220F331F0A94E2F7322F309592
S1130250932394BB95B3292B25BB23B330E0A90189
S113026002C0559547958A95E2F7CA0151E0852762
S113027081700895AF92BF92CF92DF92EF92FF9276
S11302800F931F93CF93DF936C017C0100E010E088
S1130290A12CB12C21C0BE01C801A5DF882381F0A7
S11302A0F701EC0FFD1F808181110AC0C801880F7E
S11302B0991F080F191FC00FD11FCE0101961FC02F
S11302C02196C330D10539F70F5F1F4F84E0E80E44
S11302D0F11C0330110519F0CA2DDB2DDCCF61E0D0
S11302E070E083E090E07FDF882339F0F6018585B4
S11302F090E091958195910902C08FEF9FEFDF9176
S1130300CF911F910F91FF90EF90DF90CF90BF900E
S1130310AF900895611108C08C3091050CF00C97D2
S1130320009711F48CE090E008950F93FC01643081
S113033071053CF462307105D4F46130710549F003
S113034039C065307105F9F0C4F06630710509F102
S113035031C0002331F0883191057CF180E090E0D8
S113036036C08C3091055CF180E090E030C08C3375
S113037091053CF180E090E02AC081E090E0EF2B11
S113038031F580E024C08D309105ECF081E090E0FF
S11303901EC0DA0113968C91869586958F70D901CB
S11303A0A80FB11D8C9190E08E179F0774F481E023
S11303B090E00DC08E2F9F2F0AC09F2F08C09F2F43
S11303C006C09F2F04C09F2F02C08E2F9F2F0F9116
S11303D008957F928F929F92AF92BF92CF92DF92B5
S11303E0EF92FF920F931F93CF93DF934C016B0116
S11303F0EA01F22E732E9CDEC6010597039720F0C6
S1130400C114D10409F050C0E11012C09981929531
S11304109F708A8181708295807F892B90E00C97F0
S113042074F00F2EF0E7AF2EF0E0BF2EF02D0DC0CC
S11304300F2EF3ECAF2EF0E0BF2EF02D06C00F2EE2
S1130440FDE6AF2EF0E0BF2EF02D998192959F70BE
S11304508A8181708295807F892B6E2D90E05ADF8E
S1130460BF92AF9228812F731F922F9338813295B8
S113047036953695337029812F70220F220F232B46
S11304801F922F939F938F9386E790E09F938F9370
S11304901F930F93DCD48DB79EB70C960FB6F894C8
S11304A09EBF0FBE8DBFD6C094E0C916D10409F01B
S11304B03EC0892839F40F2EFDE6AF2EF0E0BF2EA2
S11304C0F02D06C00F2EF0E7AF2EF0E0BF2EF02D7A
S11304D0998192959F708A8181708295807F892B02
S11304E06E2D90E017DFBF92AF9228812F731F9279
S11304F02F933881329536953695337029812F7034
S1130500220F220F232B1F922F939F938F9386E703
S113051090E09F938F931F930F9399D48DB79EB7B9
S11305200C960FB6F8949EBF0FBE8DBF3EC193E0EC
S1130530C916D104E1F5EE2039F00F2EF3ECAF2EFD
S1130540F0E0BF2EF02D06C00F2EF3E7AF2EF0E043
S1130550BF2EF02D998192959F708A81817082952A
S1130560807F892B6E2D90E0D5DEBF92AF929F9253
S11305708F923881329536953695337029812F7054
S1130580220F220F232B1F922F939F938F9386E783
S113059090E09F938F931F930F9359D48DB79EB779
S11305A00C960FB6F8949EBF0FBE8DBFFEC092E0AE
S11305B0C916D10481F5EE2039F00F2EF3ECAF2EDD
S11305C0F0E0BF2EF02D06C00F2EF3E7AF2EF0E0C3
S11305D0BF2EF02D998192959F708A8181708295AA
S11305E0807F892B6E2D90E095DEBF92AF929F9213
S11305F08F929F938F938DE890E09F938F931F9397
S11306000F9325D48DB79EB70A960FB6F8949EBF64
S11306100FBE8DBFCAC091E0C916D104D9F4EE2033
S113062019F083EC90E002C083E790E09F938F93EE
S11306309F928F9282EA90E09F938F931F930F93E0
S113064006D48DB79EB708960FB6F8949EBF0FBE1A
S11306508DBFABC0C6010197049750F481E1E5EB6F
S1130660F0E0AF2DB72D01900D928A95E1F790C07F
S113067095E0C916D10481F49F928F9286EC90E0A4
S11306809F938F937F92FF92E2D30F900F900F90DE
S11306900F900F900F907CC086E0C816D104C1F46F
S11306A09F928F928B81869586958F701F928F93E0
S11306B089ED90E09F938F937F92FF92C8D38DB77B
S11306C09EB708960FB6F8949EBF0FBE8DBF60C04C
S11306D097E0C916D10421F59F928F929A8196953D
S11306E08B81282F279522272795922B8695817019
S11306F08F939F938B81869586958F701F928F938E
S11307008EEE90E09F938F937F92FF92A0D38DB74C
S11307109EB70A960FB6F8949EBF0FBE8DBF38C021
S1130720CD28B1F59B8192959695969593708C8181
S1130730282F220F220F922B8295869586958370FF
S11307402D812F70220F220F822B8F939F939A81DA
S113075096958B81282F279522272795922B86956E
S113076081708F939F938B81869586958F701F924E
S11307708F938EEE90E09F938F937F92FF9267D337
S11307808DB79EB70A960FB6F8949EBF0FBE8DBF65
S113079060E080E0D1DC8F2D972DE0DC60E081E02B
S11307A0CBDC802F912FDADC08C091E0C91AD10884
S11307B084E0C816D10460F751CFDF91CF911F9127
S11307C00F91FF90EF90DF90CF90BF90AF909F90EC
S11307D08F907F900895CF93DF93CDB7DEB7C05449
S11307E0D1090FB6F894DEBF0FBECDBF50DC81DC5B
S11307F04FDC88E10FB6F89481BD11BC0FBE82EFC7
S113080080931E018EE780931F0189E3809320016A
S113081088E48093210181E080932201E3E2F1E006
S11308208081807F8083FE013196DE2EFF2ECE01F3
S113083041961192E817F907E1F78DE0E0E6F0E060
S1130840DE01519601900D928A95E1F771DC83E007
S113085091E084DC60E081E06FDC84E191E07EDCA7
S113086088EE93E018DC64DCEE24E3948E01025EEF
S11308701F4F9E01225D3F4F4EE151E061E070E069
S113088080E090E0A6DD21E02EAF412C512C212CFC
S1130890312CAA24A394B12CDFAE2196FFAE21976C
S11308A0612C712C1A141B040CF080C1CE0101962A
S11308B0E1DC99230CF49BC2EFEF4E1A5E0A91011E
S11308C0220F331F220C331C220C331C220C331C2A
S11308D0220E331E280E391EF1E0AF16B10449F57D
S11308E022E04216510409F054C10EAD9E012F5E60
S11308F03F4F4EE151E061E070E0C10116DD282F69
S11309002295207FEFE1F1E090819F70922B9083FC
S113091082958170E0E2F1E090819E7F892B808353
S1130920412C512C212C312C6894AA24A1F8B12CEF
S113093030C1F2E0AF16B10469F522E04216510469
S113094009F027C10EAD9E012F5E3F4F4EE151E0ED
S113095062E070E0C101E9DC982F9295990F990F3C
S1130960907CEEE1F1E020812F73922B90838695A9
S113097086958F70EFE1F1E09081907F892B8083E1
S1130980412C512C212C312C0F2EF3E0AF2EB12C05
S1130990F02DFFC0F3E0AF16B10419F522E04216C2
S11309A0510409F0F6C00EAD9E012F5E3F4F4EE19B
S11309B051E063E070E0C101B8DC8F73EEE1F1E077
S11309C09081907C892B8083002309F4DAC0412C28
S11309D0512C212C312C0F2EF5E0AF2EB12CF02D03
S11309E0D8C024E0A216B104E9F581E04816510408
S11309F009F0CFC00EAD9E012F5E3F4F4EE151E096
S1130A0064E070E0C10191DC982F990F890F382FB1
S1130A10330F330FEFE1F1E02081922F92959F7015
S1130A20E0E2F1E08081482F41704295407F942BB1
S1130A30930F392F3295307F2F70232BEFE1F1E0A4
S1130A402083929591708E7F892BE0E2F1E0808380
S1130A50412C512C212C312C0F2EF5E0AF2EB12C32
S1130A60F02D97C0F5E0AF16B10411F522E042165F
S1130A70510409F08EC00EAD9E012F5E3F4F4EE132
S1130A8051E065E070E0C10150DC8F70880F880F81
S1130A90E1E2F1E09081937C892B8083412C512CFD
S1130AA0212C312C0F2EF6E0AF2EB12CF02D71C07D
S1130AB0F6E0AF16B10461F522E04216510409F0E4
S1130AC068C00EAD9E012F5E3F4F4EE151E066E0DF
S1130AD070E0C1012ADC282F220FE0E2F1E030812E
S1130AE03170232B2083881F8827881FE1E2F1E0DF
S1130AF020812E7F822B90FB81F98083412C512C05
S1130B00212C312C0F2EF7E0AF2EB12CF02D41C04B
S1130B10F7E0AF16B104E9F524E042165104C9F533
S1130B200EAD9E012F5E3F4F4EE151E067E070E055
S1130B30C101FBDB282F2295220F220F207CE1E24A
S1130B40F1E030813F73232B2083292F2295220F3C
S1130B50220F207C86958695822BE2E2F1E0808349
S1130B60892F869586958F70E3E2F1E09081907FDE
S1130B70892B8083412C512C212C312CA12CB12C7C
S1130B8008C0412C512C212C312C6894AA24A2F8A1
S1130B90B12CEEAC8E01025E1F4F9E01225D3F4FD1
S1130BA04EE151E0B501C10114DC21C188EE93E0AE
S1130BB072DABEDAEEE1F1E0908181E0890F8F73A1
S1130BC0907C892B80838F738C33E1F42081229570
S1130BD0269526952370EFE1F1E09081892F8F709F
S1130BE0880F880F822B8F5F282F2F7326952695C9
S1130BF0907F922B90838295880F880F807CEEE102
S1130C00F1E08083EEE1F1E09081929596959695DE
S1130C109370EFE1F1E080818F70880F880F892B4A
S1130C208C33E1F4208122952F70E0E2F1E0908191
S1130C30892F81708295807F822B8F5F84FB22278E
S1130C4020F99E7F922B9083EEE1F1E090819F73D7
S1130C5090838295807FEFE1F1E08083EFE1F1E022
S1130C60908192959F70E0E2F1E08081817082959D
S1130C70807F892B883111F530813695E1E2F1E0EE
S1130C802081422F479544274795842F832B21FBAE
S1130C90992790F901969170382F331F3327331F0A
S1130CA02E7F232B90FB21F92083EFE1F1E090814B
S1130CB09F709083880FE0E2F1E08083E0E2F1E04E
S1130CC090819695E1E2F1E08081282F27952227F3
S1130CD02795C22EC92A81FBDD24D0F8982E96943C
S1130CE09694F92DFF709F2EE1E1F0E0EC0FFD1FCB
S1130CF0E90DF11DE080F12C82958695869583702F
S1130D00E2E2F1E09081292F220F220F022F082B1B
S1130D109295969596959370E3E2F1E080818F70B9
S1130D20880F880F182F192BC80128DA882361F03F
S1130D30E1E2F1E080818C7331E020E0883009F059
S1130D4030E0832F922F02C080E090E0E80EF91E7D
S1130D50EC14FD048CF4E0E2F1E0808181708260A7
S1130D608083E1E2F1E0808191E0990D9F70990F19
S1130D70990F807C892B8083E1E2F1E080818C7380
S1130D80843329F50F5F1F4F1F73902F9295990F8E
S1130D90990F907C80818370212F2295220F220F3E
S1130DA0207C302F36953695232BE2E2F1E0208328
S1130DB0312F369536953F70E3E2F1E02081207FB4
S1130DC0232B2083892B8460E1E2F1E0808381E09E
S1130DD0FEADF827FEAFEF2E8E01025E1F4F9E017F
S1130DE0225D3F4F4EE151E0B501C101F2DA8FAC13
S1130DF021969FAC2197C12CD12C16C0B801C601F5
S1130E00F2D9F70181937F010F5F1F4F0430110561
S1130E10A9F7FFEFCF1ADF0A24E0820E911C84E0C9
S1130E20C816D10409F43ECD7401062D172DE6CF62
S1130E30A29FB001B39FC001A39F700D811D112417
S1130E40911DB29F700D811D1124911D0895AEE076
S1130E50B0E0ECE2F7E091C20D891E8986E08C8354
S1130E601A8309838FEF9FE79E838D83AE01475ECC
S1130E705F4F6F89788DCE01019608D0EF81F88598
S1130E80E00FF11F10822E96E4E093C2ACE0B0E0D4
S1130E90EBE4F7E064C27C016B018A01FC01178278
S1130EA01682838181FFB0C1CE0101964C01F70106
S1130EB09381F60193FD859193FF81916F018823BE
S1130EC009F49EC1853239F493FD859193FF819194
S1130ED06F01853221F4B70190E0B1D1E8CF512CF4
S1130EE0312C20E02032A0F48B3269F030F48032CF
S1130EF059F0833269F420612CC08D3239F080338B
S1130F0039F4216026C02260246023C0286021C0F7
S1130F1027FD27C030ED380F3A3078F426FF06C09D
S1130F20FAE05F9E300D1124532E13C08AE0389EE0
S1130F30300D1124332E20620CC08E3221F426FD94
S1130F405FC1206406C08C3611F4206802C0883664
S1130F5041F4F60193FD859193FF81916F01811115
S1130F60C1CF982F9F7D9554933028F40C5F1F4F69
S1130F70FFE3F9830DC0833631F0833771F0833595
S1130F8009F057C021C0F801808189830E5F1F4F8B
S1130F9044244394512C540114C03801F2E06F0EE0
S1130FA0711CF801A080B18026FF03C0652D70E09C
S1130FB002C06FEF7FEFC5012C8736D12C0183016E
S1130FC02C852F77222E16C03801F2E06F0E711C8B
S1130FD0F801A080B18026FF03C0652D70E002C037
S1130FE06FEF7FEFC5012C8714D12C012C8520686D
S1130FF0222E830123FC19C0832D90E04816590644
S1131000A0F4B70180E290E01AD13A94F5CFF5014B
S113101027FC859127FE81915F01B70190E00FD1F4
S113102031103A94F1E04F1A51084114510479F700
S1131030DEC0843611F0893631F5F80127FF07C088
S113104060817181828193810C5F1F4F08C0608130
S11310507181882777FD8095982F0E5F1F4F2F761B
S1131060B22E97FF09C090958095709561957F4F3A
S11310708F4F9F4F2068B22E2AE030E0A40111D197
S1131080A82EA81843C0853729F42F7EB22E2AE053
S113109030E025C0F22FF97FBF2E8F36C1F018F44F
S11310A0883579F0ADC0803719F0883721F0A8C0B1
S11310B02F2F2061B22EB4FE0DC08B2D8460B82E6C
S11310C009C024FF0AC09F2F9660B92E06C028E0ED
S11310D030E005C020E130E002C020E132E0F80158
S11310E0B7FE07C060817181828193810C5F1F4FBD
S11310F006C06081718180E090E00E5F1F4FA40103
S1131100D0D0A82EA818FB2DFF77BF2EB6FE0BC09B
S11311102B2D2E7FA51450F4B4FE0AC0B2FC08C0D7
S11311202B2D2E7E05C07A2C2B2D03C07A2C01C0CA
S1131130752C24FF0DC0FE01EA0DF11D8081803362
S113114011F4297E09C022FF06C07394739404C06D
S1131150822F867809F0739423FD12C020FF06C005
S11311605A2C731418F4530C5718732C731460F41A
S1131170B70180E290E02C8762D073942C85F6CF7F
S1131180731410F4371801C0312C24FF11C0B701B7
S113119080E390E02C8753D02C8522FF16C021FFDA
S11311A003C088E590E002C088E790E0B7010CC076
S11311B0822F867851F021FD02C080E201C08BE2CB
S11311C027FD8DE2B70190E03AD0A51430F4B701C1
S11311D080E390E034D05A94F8CFAA94F401EA0D55
S11311E0F11D8081B70190E02AD0A110F6CF332001
S11311F009F45DCEB70180E290E021D03A94F7CFB4
S1131200F7018681978102C08FEF9FEF2C96E2E170
S1131210C2C0FC010590615070400110D8F7809560
S113122090958E0F9F1F0895FC01615070400190AE
S11312300110D8F7809590958E0F9F1F08950F93F6
S11312401F93CF93DF93182F092FEB018B8181FD1F
S113125003C08FEF9FEF20C082FF10C04E815F81DB
S11312602C813D81421753077CF4E881F9819F0169
S11312702F5F3F4F39832883108306C0E885F985A3
S1131280812F0995892B29F72E813F812F5F3F4FAD
S11312903F832E83812F902FDF91CF911F910F9148
S11312A00895FA01AA27283051F1203181F1E894F8
S11312B06F936E7F6E5F7F4F8F4F9F4FAF4FB1E045
S11312C03ED0B4E03CD0670F781F891F9A1FA11D40
S11312D0680F791F8A1F911DA11D6A0F711D811D41
S11312E0911DA11D20D009F468943F912AE0269F06
S11312F011243019305D3193DEF6CF010895462F65
S11313004770405D4193B3E00FD0C9F7F6CF462F45
S11313104F70405D4A3318F0495D31FD40524193AE
S113132002D0A9F7EACFB4E0A6959795879577956B
S11313306795BA95C9F700976105710508959B01F2
S1131340AC010A2E06945795479537952795BA957B
S1131350C9F7620F731F841F951FA01D08952F9254
S11313603F924F925F926F927F928F929F92AF9231
S1131370BF92CF92DF92EF92FF920F931F93CF937E
S1131380DF93CDB7DEB7CA1BDB0B0FB6F894DEBF15
S11313900FBECDBF09942A88398848885F846E843B
S11313A07D848C849B84AA84B984C884DF80EE8085
S11313B0FD800C811B81AA81B981CE0FD11D0FB68E
S11313C0F894DEBF0FBECDBFED010895F894FFCFB2
S11313D0001F1C1F1E1F1E1F1F1E1F1E1F616D00CE
S11313E0706D002D2D00253032693A253032693A6E
S11313F0253032692025732020202020002530321A
S1131400693A253032693A2D2D2025732020202079
S11314102000253032693A2D2D3A2D2D20257320B8
S113142020202020002D2D2F2D2D2F2D2D2D2D2052
S1131430202020202000253032692F2D2D2F2D2D06
S11314402D2D20202020202000253032692F25300A
S113145032692F2D2D2D2D202020202020002530F5
S113146032692F253032692F25303469202020201D
S11314702020004368656573652061726520796F7B
S11114807520680061707079206E6F7700002F
S9030000FC
