:1000000029C0000044C0000042C0000040C0000001
:100010003EC000003CC000003AC0000038C00000F4
:1000200036C0000034C0000032C0000030C0000004
:100030002EC000002CC000002AC0000028C0000014
:1000400026C0000024C0000022C0000020C0000024
:100050001EC0000011241FBECFE5D8E0DEBFCDBF1B
:1000600010E0A0E6B0E0E8ECF2E302C005900D92EB
:10007000A23BB107D9F725E0A2EBB0E001C01D9289
:10008000A530B207E1F70E9403120C946219B8CFB1
:1000900023E023BF3EEF08C032BF28B7216028BF4E
:1000A000A89508B600FEFDCF0197B0F713BE0895DE
:1000B0004115510551F0A62FB72FFC01840F951F54
:1000C0002D912193E817F907D9F708950F931F93FE
:1000D000DC01FB01638D70E0762F6627828D682B33
:1000E00080E090E02C91233079F4058910E0102F06
:1000F00000272489022B20E030E0980111270027F7
:10010000602B712B822B932B1F910F910895FC0173
:10011000A081B181109709F16C91613258F06A3376
:1001200041F1FD0131969F014191413228F04A335E
:10013000D1F704C0462F9D014A3391F4AD014F5FC2
:100140005F4F2417350779F4603381F41296FC0170
:10015000B183A08380E090E008958FEF9FEF089532
:1001600080E090E008958FEF9FEF08958FEF9FEF6D
:1001700008959D01E3CF8F929F92AF92BF92CF924D
:10018000DF92EF92FF920F931F93CF93DF93EC01D7
:100190008C81882309F444C0CAA4DBA4ECA4FDA488
:1001A0005E018EE2A80EB11C01E010E0A7019601ED
:1001B000B50189810E944915811134C01C828E8D40
:1001C0009F8DA8A1B9A1B701A601481B590B6A0BC5
:1001D0007B0B8E899F89A88DB98D481759076A07AF
:1001E0007B0710F58B80912C82E088169104F0F04B
:1001F0008E899F89A88DB98DC80ED91EEA1EFB1E57
:1002000001E010E0A7019601B50189810E9449151E
:1002100081E0881A910881E08816910449F708C0A6
:1002200080E007C081E005C080E003C080E001C03D
:1002300080E0DF91CF911F910F91FF90EF90DF90C1
:10024000CF90BF90AF909F908F900895CF92DF9204
:10025000EF92FF920F931F93CF93DF93EC016A010C
:100260007B014AA55BA56CA57DA54C155D056E05BA
:100270007F05A1F080DF811113C001E010E0A7012C
:100280009601BE01625D7F4F89810E94FB1481113E
:1002900009C0CAA6DBA6ECA6FDA605C080E003C087
:1002A00081E001C081E0DF91CF911F910F91FF901C
:1002B000EF90DF90CF9008950F931F93CF93DF932C
:1002C000EC011C820FEF1FEF98010AA71BA72CA7B8
:1002D0003DA7BCDF811151C0FE01E35DFD4F808170
:1002E00090E0982F882731972081822B85359A4A74
:1002F00009F045C0E55CF14080813197408150E0D4
:1003000060E070E0BA0155274427782B329780814E
:10031000482B3196008110E0102F002720E030E0BC
:10032000402B512B622B732B772746345144644565
:10033000710539F17E9680813197408150E060E00F
:1003400070E0BA0155274427782B32978081482BDB
:10035000CF57DF4F888190E0982F8827A0E0B0E04A
:10036000482B592B6A2B7B2B772781E0463451444D
:100370006445710539F480E005C083E003C082E084
:1003800001C080E0DF91CF911F910F9108950097F8
:10039000C9F0DC01ED91FC9111973097A9F0208113
:1003A0002223A1F02681378112968D919C9113977B
:1003B0002817390769F481810E94351480FF0AC02B
:1003C00083E0089589E0089589E0089589E008951B
:1003D00089E0089580E008952F923F924F925F92B6
:1003E0006F927F928F929F92AF92BF92CF92DF9245
:1003F000EF92FF920F931F93CF93DF93CDB7DEB7AA
:100400006D970FB6F894DEBF0FBECDBF6C01CB0168
:10041000B42ED6011D921C927ADE7C0199230CF435
:10042000E3C2FC01EE0FFF1FEC54FF4F008111816E
:100430000115110509F4DAC2F60111830083D80110
:100440008C91882369F011968C910E94351480FD5F
:1004500007C0BB2009F4CCC282FDCCC280E018C327
:10046000F8011082E1828E2D0E943C1480FDC4C2EE
:10047000BB2011F082FDC2C240E050E0BA01C801C9
:100480001BDF813009F052C0F801E051FE4F7E01C0
:1004900021E1E20EF11C9E012F5F3F4FA12CB12CF8
:1004A000C12CD12C80818823B1F04781868190E0D6
:1004B000A0E0B0E0DC0199278827B42B4481842B8D
:1004C000458150E0542F442760E070E0482B592BC1
:1004D0006A2B7B2B04C04A2D5B2D6C2D7D2DD90101
:1004E0004D935D936D937D939D017096AE15BF0501
:1004F000C9F6FE0131966F016894BB24B1F8D601AC
:100500004D905D906D907D906D014114510461049A
:10051000710439F0B301A201C801CEDE811102C01D
:1005200008C08B2DCE14DF0451F703C0412C512C91
:100530003201833009F464C2811164C2F80182ADD2
:1005400090E0982F882721AD822B8115924009F0E9
:100550005BC2F801EB5BFF4FC080D12CDC2CCC24BC
:1005600031978081C82AE12CF12CC114D104E10417
:10057000F104C9F4719680813197C080D12CE12CAF
:10058000F12C7601DD24CC24F82A32978081C82A08
:100590003196808190E0982F8827A0E0B0E0C82AAB
:1005A000D92AEA2AFB2AD8015696CD92DD92ED92FD
:1005B000FC925997DE96AC91F801A3838FEF8A0FD6
:1005C000823008F023C2F3ADF98B2F2FF80122837C
:1005D000222309F41DC2822F90E09C012150310991
:1005E00082239323892B09F015C2E05CFF4F8081A1
:1005F00090E0982F8827F80127AD1C01222A318628
:100600002086C1018F709927892B09F005C2EE5B06
:10061000FF4F8080912C982C882431978081882AE4
:10062000A12CB12C81149104A104B104D1F47096D1
:10063000808131978080912CA12CB12C5401992478
:100640008824B82A32978081882A3196808190E068
:10065000982F8827AC0160E070E0842A952AA62AAA
:10066000B72AF80185ADE82FF0E03E2F2227F801E8
:1006700084ADF901E82B309709F4D0C1B0E0A701AF
:1006800096010E948A166A8F7B8F8C8F9D8F9F01A7
:1006900040E050E02E8B3F8B488F598FC1019295DF
:1006A00082958F7089279F708927280F391F411DD8
:1006B000511DDA01C9012A8D3B8D4C8D5D8D280FAE
:1006C000391F4A1F5B1F2A8B3B8B4C8B5D8B82161D
:1006D0009306A406B50608F4A3C1C501B401621BC4
:1006E000730B840B950BE9892E2F30E040E050E02E
:1006F0000E946816DA01C90121153105410551052D
:1007000009F490C1263FFFE03F074105510518F469
:1007100061E0698B02C0E2E0E98B863F9F4FA10553
:10072000B10508F087C149015A0162E0860E911CAB
:10073000A11CB11CD80152968D929D92AD92BC9293
:100740005597F801428E538E648E758E8E899F89DF
:10075000A88DB98D840D951DA61DB71D868F978F09
:10076000A0A3B1A34A895B896C897D89440D551D7D
:10077000661D771D46A357A360A771A7F989F330BB
:1007800061F5232809F050C1F801E35AFF4F208199
:100790003197808190E0A0E0B0E0DC0199278827C4
:1007A000B22B32972081822B3196408150E0542F1A
:1007B000442760E070E0842B952BA62BB72BF80123
:1007C00082A393A3A4A3B5A3880C991CAA1CBB1C49
:1007D000880C991CAA1CBB1C2DC0232809F426C117
:1007E0002A8D3B8D4C8D5D8D820F931FA41FB51FED
:1007F000F80182A393A3A4A3B5A3F989F23029F445
:10080000880C991CAA1CBB1C15C0A3E0B0E0A50174
:1008100094010E948A16DC01CB01B695A7959795A5
:10082000879521E082229924AA24BB24880E991E50
:10083000AA1EBB1E3FEF830E31E0931EA11CB11C0C
:10084000072E79E0B694A794979487947A95D1F778
:10085000702DC814D904EA04FB0408F4E9C08FEF32
:100860009FEFDC01F80186879787A08BB18B828789
:100870009387A487B58780E88583F989F33009F0E9
:10088000A1C0F801E15AFF4F808190E0982F88279E
:1008900031972081822B019709F094C0B301A20106
:1008A0004F5F5F4F6F4F7F4FC801D0DC81118AC00F
:1008B000D80115961C92F801E35DFD4F808190E010
:1008C000982F882731972081822B85359A4A09F005
:1008D00079C0F80121A980A990E0A0E0B0E0DC0196
:1008E00099278827B22B26A5822B47A550E0542FA5
:1008F000442760E070E0842B952BA62BB72B823524
:100900009245A146B14409F05DC0F801EB5EFD4F90
:1009100020813197808190E0A0E0B0E0DC01992750
:100920008827B22B32972081822B3196408150E06C
:10093000542F442760E070E0842B952BA62BB72B17
:1009400082379247A144B146E9F536962081319726
:10095000808190E0A0E0B0E0DC0199278827B22BED
:1009600032972081822B3196408150E0542F4427CA
:1009700060E070E0842B952BA62BB72BF8018687BF
:100980009787A08BB18BE35EFD4F208131978081EB
:1009900090E0A0E0B0E0DC0199278827B22B3297E5
:1009A0002081822B3196408150E0542F442760E013
:1009B00070E0842B952BA62BB72BF80182879387A9
:1009C000A487B587E989D801EC938091B200909112
:1009D000B30001969093B3008093B20017969C9356
:1009E0008E93169780E054C08BE052C08CE050C0CC
:1009F00080E04EC08AE04CC083E04AC08AE048C034
:100A000081E046C08DE044C08DE042C08DE040C032
:100A10008DE03EC08DE03CC08DE03AC08DE038C036
:100A20008DE036C08DE034C08DE032C08DE030C046
:100A30008DE02EC049015A01F2E08F0E911CA11CDD
:100A4000B11CD80152968D929D92AD92BC92559751
:100A5000F801428E538E648E758E8E899F89A88D83
:100A6000B98D840D951DA61DB71D868F978FA0A3E8
:100A7000B1A38A899B89AC89BD89840D951DA61D6A
:100A8000B71D86A397A3A0A7B1A7F3E0F98B79CEF2
:100A90006D960FB6F894DEBF0FBECDBFDF91CF913C
:100AA0001F910F91FF90EF90DF90CF90BF90AF908C
:100AB0009F908F907F906F905F904F903F902F907E
:100AC00008950F931F93CF93DF93EC0154DB982F7E
:100AD000811161C08881833009F053C08D818130DC
:100AE00009F04FC0BE01625D7F4FFB01CE01825D08
:100AF0009D4F1192E817F907E1F785E5FE01E45DE6
:100B0000FD4F80838AEA3196808382E58EA78FA786
:100B100081E688AB91E499AB22E77B9720833196FD
:100B2000208331969083319680833E852F859889E6
:100B3000898931963083319620833196908331961E
:100B400080833A852B859C858D85319630833196BF
:100B5000208331969083319680838A8D9B8DAC8DD6
:100B6000BD8D9C01AD012F5F3F4F4F4F5F4F2AA7B7
:100B70003BA74CA75DA701E010E089810E944915C1
:100B80001D8240E050E060E089810E94AD1591E057
:100B9000811101C090E0892FDF91CF911F910F91BA
:100BA0000895CF92DF92EF92FF92FC019A01AB0180
:100BB0002250310941095109C288D388E488F58857
:100BC00082E0C81AD108E108F1082C153D054E0550
:100BD0005F0568F4A281B0E00E948A16C6A0D7A083
:100BE000E0A4F1A46C0D7D1D8E1D9F1D03C060E06F
:100BF00070E0CB01FF90EF90DF90CF900895BF920F
:100C0000CF92DF92EF92FF920F931F93CF93DF93D8
:100C1000EC016A017B01423051056105710508F460
:100C2000C2C04A895B896C897D89C416D506E606EF
:100C3000F70608F0BDC08881823009F448C08330CF
:100C400009F46CC0813009F0B8C08601169507958B
:100C50000C0D1D1DC801892F992786954E8D5F8D1E
:100C600068A179A1480F591F611D711DCE01EEDAEF
:100C70008111A8C0F801F170EC0FFD1FB6A40F5F41
:100C80001F4FC801892F992786954E8D5F8D68A1CA
:100C900079A1480F591F611D711DCE01D7DA81114D
:100CA00095C01170C00FD11F8EA56B2D70E0782BF1
:100CB000C0FE09C0729562956F7067277F706727C5
:100CC00080E090E08EC07F7080E090E08AC077275F
:100CD0006F2D5E2D4D2D0E8D1F8D28A139A1400F3A
:100CE000511F621F731FCE01B1DA811173C0CC0C8A
:100CF000DD1CEE1CFF1CE894C0F881E0D822EE2435
:100D0000FF24FE01EC0DFD1D66A5FE01EC0DFD1D91
:100D100087A570E0782B80E090E063C04E8D5F8DFA
:100D200068A179A197018601689416F836952795F0
:100D3000179507951694D1F7400F511F621F731F27
:100D4000CE0184DA81114AC0CC0CDD1CEE1CFF1CE4
:100D5000CC0CDD1CEE1CFF1C8CEFC82281E0D822DD
:100D6000EE24FF24F601BE96EC0FFD1F8281438125
:100D700050E060E070E0742F662755274427682B09
:100D8000818190E0982F8827A0E0B0E0842B952BFC
:100D9000A62BB72BFE01EC0DFD1D26A5822BBC0159
:100DA000CD019F701EC061E070E080E090E019C04E
:100DB00061E070E080E090E014C061E070E080E00D
:100DC00090E00FC06FEF7FEFCB010BC06FEF7FEFB5
:100DD000CB0107C06FEF7FEFCB0103C06FEF7FEF59
:100DE000CB01DF91CF911F910F91FF90EF90DF909A
:100DF000CF90BF900895AF92BF92CF92DF92EF92C3
:100E0000FF920F931F93CF93DF93EC018B017D83B0
:100E10006C83CE80DF80E884F98481E0C816D10439
:100E2000E104F10409F48AC0E881F9818289938997
:100E3000A489B589C816D906EA06FB0608F080C061
:100E4000C114D104E104F104C1F48081833041F480
:100E500082A193A1A4A1B5A10097A105B10559F460
:100E6000808591850817190708F06CC062A173A1ED
:100E700084A195A135C06C017D01A28080E1A89E6E
:100E8000500111240A151B0530F1B701A601888114
:100E90009981B5DE6B017C018FEFC816D806E80694
:100EA000F80609F451C082E0C816D104E104F10447
:100EB00008F44CC0E881F98182899389A489B589B5
:100EC000C816D906EA06FB0608F042C00A191B0933
:100ED0000A151B05D0F6B701A6018881998161DE4C
:100EE000CA86DB86EC86FD86611571058105910554
:100EF00089F19801329522952F7023273F7023277F
:100F0000DC01CB01820F931FA11DB11D8E879F872E
:100F1000A88BB98B0F701127C801880F991F829574
:100F20009295907F9827807F98278E962881398187
:100F3000820F931F9B8B8A8B80E00DC082E00BC0D9
:100F400082E009C082E007C081E005C082E003C002
:100F500082E001C082E0DF91CF911F910F91FF905D
:100F6000EF90DF90CF90BF90AF9008954F925F9237
:100F70006F927F928F929F92AF92BF92CF92DF92A9
:100F8000EF92FF920F931F93CF93DF9300D000D087
:100F9000CDB7DEB74C016A017B012801390142302F
:100FA00051056105710508F4E8C0FC018289938947
:100FB000A489B589481759076A077B0708F0DFC07D
:100FC0008081823009F470C0833009F491C081308F
:100FD00009F0CEC05A01B694A794A40EB51EC5015F
:100FE000892F99278695468D578D60A171A1480F4D
:100FF000591F611D711DC40129D98111BAC0C501D4
:101000009170A70196012170332744275527298322
:101010003A834B835C83C0FE0BC0F401E80FF91FD9
:1010200046A54F7050E1459E90011124242B01C02C
:10103000242DF401E80FF91F26A78FEFA81AB80A8C
:1010400081E0F4018483C501892F99278695468D17
:10105000578D60A171A1480F591F611D711DC401F9
:10106000F5D8811186C0F1E0BF2229813A814B81F8
:101070005C81232B242B252B49F0689413F876945C
:101080006794579447941694D1F709C0F401EA0D78
:10109000FB1D26A5207F952D9F70422E492AF40125
:1010A000EA0DFB1D46A665C0452F562F672F7727F3
:1010B000F401868D978DA0A1B1A1480F591F6A1F19
:1010C0007B1FC401C3D8811154C0CC0CDD1CEE1CA5
:1010D000FF1CE894C0F8F1E0DF22EE24FF24F401C5
:1010E000EC0DFD1D46A6F401EC0DFD1D57A641C0FB
:1010F000F401868D978DA0A1B1A1689416F876951C
:101100006795579547951694D1F7480F591F6A1F51
:101110007B1FC4019BD881112CC0CC0CDD1CEE1CA4
:10112000FF1CCC0CDD1CEE1CFF1CFCEFCF22F1E001
:10113000DF22EE24FF24F601BE96E80DF91D43815F
:1011400050E060E070E0742F662755274427D401F3
:10115000AC0DBD1D442755276627707F442A552AAC
:10116000662A772A9E964C9251826282738201C0CF
:1011700082E091E0F401948303C082E001C082E048
:101180000F900F900F900F90DF91CF911F910F91C3
:10119000FF90EF90DF90CF90BF90AF909F908F9097
:1011A0007F906F905F904F9008952F923F924F9253
:1011B0005F926F927F928F929F92AF92BF92CF92E7
:1011C000DF92EF92FF920F931F93CF93DF93EC0187
:1011D0002A013B01411551056105710599F48A8485
:1011E0009B84AC84BD8481149104A104B10429F1D1
:1011F0008A899B89AC89BD8988169906AA06BB068F
:1012000008F524C0FCDC623071058105910508F405
:101210009BC06F3F2FEF72078207920709F499C0B6
:101220000A891B892C893D896017710782079307FA
:1012300008F493C05301420109C0812C912C540140
:10124000839404C0812C912C540183947501640112
:101250006894222421F8312C00E010E08FEFC81AA6
:10126000D80AE80AF80A8A899B89AC89BD89C81618
:10127000D906EA06FB0658F022E082169104A10482
:10128000B10408F46EC0C22CD32CE02EF12EB701AD
:10129000A601CE01B4DC611571058105910599F0B7
:1012A0006F3F2FEF72078207920709F45FC061302A
:1012B00071058105910509F45DC0C814D904EA04DB
:1012C000FB0461F65BC08C2C9D2CAE2CBF2C0FEF69
:1012D0001FEF2FEF3FE0B701A601CE0147DE8111DE
:1012E0002CC0411451046104710451F00C2D1D2DCA
:1012F0002E2D3F2DB301A201CE0138DE81111DC07C
:101300008A869B86AC86BD868E859F85A889B9898D
:101310008F3F2FEF9207A207B207A9F10197A1090A
:10132000B1098E879F87A88BB98B8D8181608D8352
:101330004C2D3D2D2E2D9F2D2FC0813049F54FEF87
:101340003FEF2FEF9FEF28C041E030E020E090E03A
:1013500023C0462F372F282F1FC0462F372F282F67
:101360001BC040E030E020E090E016C0462F372F51
:10137000282F12C0462F372F282F0EC040E030E014
:1013800020E090E009C04C2D3D2D2E2D9F2D04C056
:1013900041E030E020E090E0642F732F822FDF9156
:1013A000CF911F910F91FF90EF90DF90CF90BF9062
:1013B000AF909F908F907F906F905F904F903F90F5
:1013C0002F9008957F928F929F92AF92BF92CF926B
:1013D000DF92EF92FF920F931F93CF93DF93EC0175
:1013E0007B010C811D810F5F1F4F0115110509F451
:1013F000E5C08E859F85A889B9890097A105B105AB
:1014000009F4DEC068012FE0C222DD24C114D1043A
:1014100009F0BDC00196A11DB11D8E879F87A88BC5
:10142000B98B4A855B856C857D85411551056105C4
:10143000710549F4E881F9818085918508171907BC
:1014400008F0C0C0A4C0E881F981828190E00197D2
:101450009801329522952F7023273F7023278223EE
:101460009323892B09F093C0CF01C9DB4B015C01A9
:1014700082E088169104A104B10408F4A5C0EFEF3E
:101480008E169E06AE06BE0609F4A0C0E881F9815C
:1014900082899389A489B58988169906AA06BB060C
:1014A00008F468C0EF2809F493C04A855B856C8511
:1014B0007D85CF017ADE4B015C01611571058105E7
:1014C000910509F487C0613071058105910509F422
:1014D00083C06F3F2FEF72078207920709F47EC027
:1014E000888199810E94BB0081117AC0888199818D
:1014F000FC01BE96825D9D4F1192E817F907E1F756
:10150000E880F980B501A401C7014BDBF70162A7B0
:1015100073A784A795A7E12CF12C7724739417C0A7
:101520007482888199810E94BB0081115BC0E8812F
:10153000F98182A593A5A4A5B5A50196A11DB11D0C
:1015400082A793A7A4A7B5A7FFEFEF1AFF0AE88128
:10155000F981828190E0E816F90610F382A593A53F
:10156000A4A5B5A58E199F09A109B10982A793A7C2
:10157000A4A7B5A78A869B86AC86BD86B501A401C3
:10158000888199810EDB6E877F87888B998B1D837D
:101590000C83CC0CDD1CCC0CDD1CCC0CDD1CCC0C71
:1015A000DD1CCC0CDD1C2EE2C20ED11C8881998181
:1015B000C80ED91EDB8ACA8A80E015C084E013C039
:1015C00084E011C084E00FC082E00DC081E00BC058
:1015D00084E009C087E007C082E005C081E003C065
:1015E00081E001C081E0DF91CF911F910F91FF90C9
:1015F000EF90DF90CF90BF90AF909F908F907F90B3
:1016000008952F923F924F925F926F927F928F92A6
:101610009F92AF92BF92CF92DF92EF92FF920F9381
:101620001F93CF93DF9300D000D000D0CDB7DEB7AB
:101630006C018B01DB018C918F3211F08C3511F430
:101640000F5F1F4FF6011682178210861186D80190
:101650008C91803240F460E070E0C601CCDBF60192
:10166000138A128A66C16894FF24F5F8E12CB12C24
:101670006894772473F8512C812C5B820F2EFBE049
:101680006F2EF02D912CDE82CD825A82272CF8010C
:101690004D815E81CF0121912F32E1F32C35D1F3C1
:1016A0005E834D83DA015496ED91FC915597DF01ED
:1016B0009F01255F3F4FFD92A217B307E1F75E83BD
:1016C0004D832E2D3B2D4E2D5B2DC72CDA80382CD3
:1016D0000D811E81B9822A01BFEF4B1A5B0ADC0122
:1016E000A40FB51F6C916C83613208F403C16F3293
:1016F00009F4F7C06C3509F4F4C06E3209F4E4C0A3
:101700002C153D0508F0CEC008C0330C330CA201E7
:10171000222D3B81C62CD92CDECF7C8177231CF473
:10172000A32DA3603A2E7C8171587F3120F07C81FB
:10173000705E7D3118F54E5F5F4FDC01A40DB51D65
:10174000BC9060EC6B0D6F3328F060E86B0D6D376B
:1017500008F0AAC0B601615071092617370708F0D2
:10176000A5C0DF01A20FB31F6C816C93D901119644
:10177000AE0FBF1F2E5F3F4FBC92ADCF7C81A72E17
:10178000B12CA2E2AA16B10409F492C0A2E6B0E01C
:101790004D91442309F49EC0552747FD5095A4164A
:1017A000B506B1F787C0B32DB2603B2E09C04C819E
:1017B00041564A3128F4432D4160342E6C816052E9
:1017C000DF01A20FB31F6C932F5F3F4FA20183CFA6
:1017D000232B09F471C02081253E11F465E060835C
:1017E00078E0C716D10419F4392E330C330C932D3D
:1017F0009370913009F48061932D9C70943009F4BA
:10180000886083876E2D7B2D8D819E81F4DA811116
:101810007AC0CD80DE80D6011E964D915D916D918E
:101820007C9151978D919C910E94260181116DC0F0
:10183000F60162897389DB019C91992309F46EC0DA
:101840001B969C9193FD12C044895589FB01DA01D6
:101850009B01255F3F4F260104C0E217F30709F4FF
:1018600062C0D1909D91D916C1F362016E2D7B2D7E
:10187000C601A8DD882379F248C092FF1FC084E02A
:1018800058C0FB01838584FF1BC0AD81BE818D9153
:101890009C910E946600ED81FE816683778380873C
:1018A0009187F5CE86E045C086E043C086E041C022
:1018B00086E03FC086E03DC086E03BC085E039C0A1
:1018C00085E037C086E035C028E0C216D10409F4AF
:1018D0001CCFF8CF7C83472F41544A3108F463CFA3
:1018E00066CF1E830D838201B980080F191F932DC7
:1018F000882D6ECF1E830D838201B980080F191FBA
:10190000932D84E065CFCD80DE80D6015496ED9195
:10191000FC9155979385843061F4AFCF0488F589A5
:10192000E02D9385AACF5E824D82FA01938592FFC6
:10193000A8CF26960FB6F894DEBF0FBECDBFDF91BD
:10194000CF911F910F91FF90EF90DF90CF90BF90BC
:10195000AF909F908F907F906F905F904F903F904F
:101960002F9008951F93CF93DF93EC0160E070E018
:1019700042DA182F811119C04E855F8568897989EF
:10198000888199810E942601182F81110EC0EA8951
:10199000FB898081853E69F0882359F061E070E021
:1019A000CE0110DD182F882339F3143019F11111ED
:1019B00022C04E855F8568897989888199810E94D6
:1019C0002601182F811117C0EA89FB899F01205E2B
:1019D0003F4F1192E217F307E1F76C897D894BE0E5
:1019E00050E08A899B890E945800E881F98181E052
:1019F000848301C017E0812FDF91CF911F9108955B
:101A00008F929F92AF92BF92CF92DF92EF92FF920E
:101A10000F931F93CF93DF93EC014A015B01423098
:101A200051056105710508F44BC04A895B896C89D1
:101A30007D8984169506A606B70608F043C0B50151
:101A4000A401CE01DCD86B017C0161157105810513
:101A50009105D1F191E0C916D104E104F104B1F18D
:101A60008FEFC816D806E806F80691F100E010E0FE
:101A70009801B501A401CE0179DA81112AC04E8501
:101A80005F85688979894F3F9FEF59076907790713
:101A900059F04F5F5F4F6F4F7F4F4E875F87688B67
:101AA000798B9D8191609D834A895B896C897D8951
:101AB000C416D506E606F70660F446015701BFCF07
:101AC00082E007C082E005C080E003C082E001C080
:101AD00081E0DF91CF911F910F91FF90EF90DF9008
:101AE000CF90BF90AF909F908F9008951F93CF930A
:101AF000DF9300D000D000D0CDB7DEB79C838B83BE
:101B00007E836D83142F7A836983CE0101960E94B0
:101B10008700992334F1FC01EE0FFF1FEC54FF4FB7
:101B20000190F081E02D309709F01082EB81FC816B
:101B30003097E9F010822B813C81FC01EE0FFF1FF2
:101B4000EC54FF4F31832083232B69F0113069F46B
:101B500040E0BE016B5F7F4FCE0103960E94EC0117
:101B60000EC08BE00CC080E00AC080E008C0FC0121
:101B7000EE0FFF1FEC54FF4F1182108280E026967B
:101B80000FB6F894DEBF0FBECDBFDF91CF911F918E
:101B900008954F925F926F927F92BF92CF92DF92A1
:101BA000EF92FF920F931F93CF93DF93CDB7DEB7E2
:101BB000A8970FB6F894DEBF0FBECDBF8C017CA3F3
:101BC0006BA3F42E009709F4E4C0DC011D921C9273
:101BD0004E71BE016D5D7F4FCE0101960E94EC01FA
:101BE0008111EBC0BF2DBF71BB2ECE0147969E8BDE
:101BF0008D8B6BA17CA1469704DDCB88DC8881119D
:101C0000D0C0C114D10409F0C6C0CAC0882371F085
:101C1000843009F0D2C0CE010196A4DEEB2DE8603D
:101C2000BE2ECB88DC88882349F0C7C0D6011B961E
:101C30008C91817109F0BAC0F2FCBAC0B3FE55C0F4
:101C400067D4F60166877787808B918B1386148E15
:101C5000158E168E178EE980FA80B601C7010E9494
:101C600066002B013C01D6015A961C925A975B964E
:101C70001C925B9754961C92549755961C9281E047
:101C8000F7018483411451046104710471F182A548
:101C900093A5A4A5B5A58DA39EA3AFA3B8A7B30193
:101CA000A201C701ADDE811188C089819A81B3018B
:101CB000A2014150510961097109FC014287538712
:101CC000648775874DA15EA16FA178A50E9426014A
:101CD0000AC0D6011B968C9184FD6CC0F1FE05C034
:101CE00080FD6AC002C0811168C0B3FE03C0BB2D75
:101CF000B062BB2EE980FA80F70182A593A5A4A566
:101D0000B5A5F801828F938FA48FB58FD78EC68E1D
:101D1000B4821582B601C7010E946600D8011E96E2
:101D20006D937D938D939C935197F601878D468D8E
:101D300050E060E070E0BA0155274427782B848D8D
:101D4000482B858D90E0982F8827A0E0B0E0482BA5
:101D5000592B6A2B7B2BD8011A964D935D936D936B
:101D60007C931D97F801168217821086118656966D
:101D70001D921D921D921C9259971196FC92EE9203
:101D8000F7018681978113969C938E93129780E03A
:101D900014C089E012C08F2D8C7109F047CF99CF04
:101DA00086E09F2D9C7109F031CF9DCF87E005C063
:101DB00088E003C084E001C087E0A8960FB6F894DD
:101DC000DEBF0FBECDBFDF91CF911F910F91FF906E
:101DD000EF90DF90CF90BF907F906F905F904F908B
:101DE00008952F923F924F925F926F927F928F92BF
:101DF0009F92AF92BF92CF92DF92EF92FF920F939A
:101E00001F93CF93DF9300D000D01F92CDB7DEB7E2
:101E10009D838C835B017A016901D9011D921C921B
:101E20000E94C7018111A8C1EC81FD8185818111CA
:101E3000A3C1848181FF9FC186819781A085B185DF
:101E4000AC01BD014E0D5F1D611D711D4817590785
:101E50006A077B0708F472C1E114F10409F46EC14A
:101E6000B096FB83EA83EC81FD8186819781A08512
:101E7000B185AC01BD01517066277727452B462BF4
:101E8000472B09F01DC180809180F40122812150EF
:101E9000AC01BD01032E39E07695679557954795BE
:101EA0003A95D1F7302D24232983211149C0892B5C
:101EB0008A2B8B2BC9F4AC81BD811E966D917D91CF
:101EC0008D919C9151976115710581059105E1F402
:101ED00040E050E0BA01C40168D9EC81FD81668719
:101EE0007787808B918B0AC0AC81BD8152964D91D2
:101EF0005D916D917C915597C40157D9611571051C
:101F00008105910509F41AC16130710581059105BA
:101F100029F482E0EC81FD8185832EC16F3FFFEFC4
:101F20007F078F079F0731F481E0AC81BD81159653
:101F30008C9322C1EC81FD81628B738B848B958B9A
:101F4000AC81BD8114968C91149786FF1DC0569666
:101F50002D913D914D915C915997ED91FC9101E04E
:101F600010E06A817B81818194D5882329F081E00A
:101F7000EC81FD81858300C1AC81BD8114968C917B
:101F800014978F7B14968C93EC81FD812080318097
:101F90004289538964897589C1010E94D1056115FF
:101FA00071058105910531F482E0AC81BD81159602
:101FB0008C93E2C02B013C01B9814B0E511C611C7A
:101FC000711C4701892C992486948114910409F489
:101FD00046C0F1014281242F30E0C4018B0F911DD6
:101FE0002817390718F449018B1A91088401A301B5
:101FF0009201B501D10111968C914BD5882329F01E
:1020000081E0EC81FD818583B7C0EC81FD8186890B
:102010009789A08DB18D84199509A609B709A401E6
:1020200060E070E084179507A607B707A0F4982F23
:102030008827990FB501680F791F40E052E08A8127
:102040009B810E945800AC81BD8114968C9114979D
:102050008F7B14968C93982C8824990C53C0EC8118
:10206000FD8186899789A08DB18D84159505A6057A
:10207000B705F1F04681578160857185828593852A
:10208000A485B585481759076A077B0788F401E0DE
:1020900010E0A30192016A817B81D10111968C919C
:1020A000AAD4882329F081E0EC81FD81858364C076
:1020B000AC81BD8156964D925D926D927C925997FE
:1020C000EC81FD8186819781A085B1859C0131706D
:1020D00040E052E0421B530B47014E155F0508F4E8
:1020E0004A019170AA27BB278096A401B501AC8153
:1020F000BD818A0F9B1F0E945800EC81FD81848165
:1021000080648483A80CB91CEC81FD818681978151
:10211000A085B185880D991DA11DB11D868397836A
:10212000A087B187D6018D919C911197880D991D3B
:102130008D939C93E818F90809F095CEEC81FD8108
:1021400086819781A085B185428553856485758593
:10215000481759076A077B0720F482879387A4876B
:10216000B587AC81BD8114968C91149780621496CA
:102170008C9380E001C087E00F900F900F900F903C
:102180000F90DF91CF911F910F91FF90EF90DF9013
:10219000CF90BF90AF909F908F907F906F905F9007
:1021A0004F903F902F9008950F931F93CF93DF93FD
:1021B000EC010E94C701811151C08C8185FF4BC089
:1021C00086FF12C02E893F89488D598DE881F9819B
:1021D00001E010E0BE01605E7F4F81815AD4811121
:1021E0003CC08C818F7B8C834A8D5B8D6C8D7D8D0B
:1021F000888199810E942601811130C00E8D1F8D2A
:10220000F8018385806283878A85848F8B85858F9B
:102210008C85868F8D85878F4E855F8568897989C6
:10222000428F538FAB0166277727448B558B70D134
:10223000F801668B778B808F918F128A138A8C813D
:102240008F7D8C83E881F98181E084838881998105
:102250000E94610503C080E001C081E0DF91CF9161
:102260001F910F910895CF93DF93EC019DDF8111B2
:1022700007C0CE010E94C701811102C019821882D5
:10228000DF91CF910895662311F0D89A01C0D898B4
:10229000D99882BB8FEF81BBDA9A00000000000062
:1022A000DA980895D898D99A11BA90B3DA9A0000BA
:1022B0000000000011BA90B3DA9899239CF3E3CFA1
:1022C0000895D09AD19AD29A80E190E00E94480075
:1022D00060E080E3D8DF85E090E00E94480060E0A5
:1022E00080E3D1DF81E090E00E94480060E08CE371
:1022F000D9DF60E08CE0D6DF60E086E0D3DF60E02D
:1023000081E0D0CF089560E081E0CCCF0895CF93F5
:10231000DF93EC012196FC018081882329F061E0A4
:10232000C1DF89918111FBCFDF91CF9108950F9388
:102330001F93CF93DF9300D0CDB7DEB79C012C5F06
:102340003F4F41E050E08A0102C0000F111F2A9563
:10235000E2F7B02FA02FA09520E030E0E1E0F0E020
:1023600074B3AF01022E02C0440F551F0A94E2F766
:10237000542F5095572354BB55B3452B45BB82175B
:10238000930739F444B34B2B44BB45B34A2345BBB5
:1023900012C074B3A9014C5F5F4F8F0102C0000FE0
:1023A000111F4A95E2F7A8014095542F572354BBBB
:1023B00055B3452345BB2F5F3F4F2430310581F690
:1023C0001A82198229813A81243631055CF42981E7
:1023D0003A812F5F3F4F3A83298329813A812436FE
:1023E0003105ACF383B390E002C0959587956A956B
:1023F000E2F711E0812781700F900F90DF91CF916C
:102400001F910F910895CF93DF93CDB7DEB76397F8
:102410000FB6F894DEBF0FBECDBF53DF80E790E06C
:1024200076DF20E030E00F2EF9E7AF2EF0E0BF2E90
:10243000F02D8E010D5F1F4FDD24D394E12C232B53
:1024400009F065C060E070E080E090E070DF882314
:10245000C9F340E06FE970E087EB90E047DBF82ECE
:102460008823B1F050DF1F92FF9286E790E09F93A0
:102470008F938E010D5F1F4F1F930F9364D4C8017C
:1024800046DF0F900F900F900F900F900F90FFCF9F
:102490008CE790E03CDF4AE060E870E085EE92E097
:1024A00078DBF82E81111DC08CE890E030DF9E01B2
:1024B0002F5F3F4F4BE050E064E970E085EE92E023
:1024C00090DC85EE92E0CFDE89819A810B9729F42A
:1024D0001ADF80EA90E01BDF14C086EA90E017DF85
:1024E00010C011DF1F92FF92BF92AF921F930F9304
:1024F0002AD4C8010CDF0F900F900F900F900F900F
:102500000F908CEA90E003DF2D2D3E2D98CFFFCF6A
:1025100060E070E08CEF92E4089526B30197009795
:10252000E1F70895FC01680F791F8191882314F465
:10253000C19A01C0C198C29AC29886FF02C0C19ACE
:1025400001C0C198C29AC29885FF02C0C19A01C059
:10255000C198C29AC29884FF02C0C19A01C0C198B2
:10256000C29AC29883FF02C0C19A01C0C198C29AA0
:10257000C29882FF02C0C19A01C0C198C29AC29893
:1025800081FF02C0C19A01C0C198C29AC29880FF5F
:1025900002C0C19A01C0C198C29AC298E617F70753
:1025A00021F60895C19AFC01680F791F86B3C29A7B
:1025B000C2988170880FB0998F5FC29AC298880FB5
:1025C000B0998F5FC29AC298880FB0998F5FC29AF4
:1025D000C298880FB0998F5FC29AC298880FB0993D
:1025E0008F5FC29AC298880FB0998F5FC29AC298C3
:1025F000880FB0998F5FC29AC2988193E617F70748
:10260000A9F608950F931F93CF93DF931F92CDB731
:10261000DEB708E813E161E070E0CE010196C2DFA9
:1026200089818F3F41F084E690E077DF0150110906
:102630000115110581F781E090E0012B11F480E094
:1026400090E00F90DF91CF911F910F910895CF935C
:10265000DF931F92CDB7DEB7C39A61E070E0CE0181
:102660000196A0DF0F90DF91CF9108950F931F93F4
:10267000CF93DF931F92CDB7DEB7C39861E070E0D0
:10268000CE0101968FDFBEDF8C01009711F4DFDFF2
:1026900002C001E010E0C8010F90DF91CF911F91BF
:1026A0000F910895CF92DF92EF92FF920F931F93B5
:1026B000CF93DF9300D0CDB7DEB77C016B0108EE7E
:1026C00013E061E070E0CE0101966CDF89818F3FFD
:1026D00041F484E690E021DF015011090115110554
:1026E00081F789818E3F59F4B601C7015BDF62E053
:1026F00070E0CE01019656DF81E090E002C080E0FC
:1027000090E00F900F90DF91CF911F910F91FF906C
:10271000EF90DF90CF900895FF920F931F93CF9388
:10272000DF9300D0CDB7DEB78C01F62E6BDF0097BC
:1027300019F1F98261E070E0CE010196F3DE8DEFD0
:10274000F816C1F060E072E0C801ECDE62E070E013
:10275000CE01019627DF61E070E0CE01019622DF15
:1027600089818F7131E020E0853009F030E0832FDE
:10277000922F02C081E090E00F900F90DF91CF91F7
:102780001F910F91FF900895DF92EF92FF920F93A8
:102790001F93CF93DF93CDB7DEB727970FB6F8948B
:1027A000DEBF0FBECDBF182F042FF52EE62ED72E7D
:1027B00088234CF440E050E0BA0187E3E5DF823043
:1027C00008F045C01F771C3059F141DF4FDF892BDE
:1027D00029F1812F80648A83DB82EC82FD820E8363
:1027E000112369F1183019F181E08F8366E070E000
:1027F000CE01029697DE1C3029F461E070E0CE0134
:102800000196D0DE1AE061E070E0CE010196CADEEA
:1028100089818823E4F41150B1F719C08FEF17C0F4
:102820008CE48A83DB82EC82FD820E83DDCF87E835
:102830008F8366E070E0CE01029674DEE3CF85E917
:102840008F8366E070E0CE0102966CDEDBCF2796C8
:102850000FB6F894DEBF0FBECDBFDF91CF911F91B1
:102860000F91FF90EF90DF900895811103C0809148
:102870006000089581E00895EF92FF920F931F93F7
:10288000CF93DF9300D000D0CDB7DEB78111A7C0C2
:1028900080E197E242DEBB9AC39ABA9AC298B99A8B
:1028A000B89A1AE061E070E0CE0101967BDE11502B
:1028B000C9F740E050E0BA0180E066DF813009F0FE
:1028C0006FC04AEA51E060E070E088E05DDF81308F
:1028D000B9F564E070E0CE01019664DE8B81813051
:1028E00009F060C08C818A3A09F05EC008EE13E0FE
:1028F00040E050E060E070E489EA46DF882349F078
:1029000088EE93E00ADE015011090115110581F7E7
:102910004DC0012B09F44CC040E050E0BA018AE3FD
:1029200033DF811147C064E070E0CE0101963ADEEA
:10293000898186FF41C00F2EFCE0FF2EF02D45C09F
:1029400040E050E0BA0189EA1FDF823040F40F2EE8
:10295000F9EAEF2EF02D6894FF24F1F804C0EE247C
:10296000E394FF24F39408EE13E040E050E0BA0152
:102970008E2D0ADF882349F088EE93E0CEDD0150EA
:1029800011090115110589F71BC0012BD9F040E091
:1029900052E060E070E080E1F7DE811115C015C003
:1029A000F12C13C0F12C11C0F12C0FC0F12C0DC073
:1029B000F12C0BC0F12C09C06894FF24F2F805C07B
:1029C000F12C03C0F12C01C0F12CF092B60011E003
:1029D000F11010E0109360003ADE812F01C083E017
:1029E0000F900F900F900F90DF91CF911F910F914B
:1029F000FF90EF900895FF920F931F93CF93DF9373
:102A0000EB0181113DC08091600080FD3BC0809151
:102A1000B60083FD09C0012E19E0220F331F441FA9
:102A2000551F1A95D1F7102D0230110528F00F2EE1
:102A3000F2E1FF2EF02D04C00F2EF1E1FF2EF02D5C
:102A4000BA01A9018F2DA0DE811114C060E072E0EF
:102A5000CE0128DE892B31F0DE5F0150110901150E
:102A60001105A1F782E1F81205C040E050E0BA017B
:102A70008CE08ADEECDD81E0012B29F480E003C0EC
:102A800083E001C083E0DF91CF911F910F91FF9010
:102A90000895CF92DF92EF92FF920F931F93CF93FF
:102AA000DF93EB0169017A0181114BC080916000D5
:102AB00080FD49C08091B60083FD09C00B2EB9E0AE
:102AC000CC0CDD1CEE1CFF1CBA95D1F7B02D0130EB
:102AD000110589F4B701A60188E156DE81112BC0EA
:102AE0006EEFCE0119DE31E020E0892B09F030E0F5
:102AF000032F122F20C0867029F0A80160E070E03B
:102B000087E942DEB701A60189E13EDE811113C0EB
:102B10006CEFCE0101DE892B31F0DE5F015011092F
:102B200001151105A9F76DEF80E090E0F5DD892B27
:102B300011F401E010E08BDD81E0012B29F480E04D
:102B400003C083E001C083E0DF91CF911F910F911B
:102B5000FF90EF90DF90CF900895CF92DF92EF92A9
:102B6000FF920F931F93CF93DF93CDB7DEB760979C
:102B70000FB6F894DEBF0FBECDBF8A01811196C09B
:102B80008091600080FD94C0613061F020F063307E
:102B900009F479C083C06ADD11E0892B09F483C090
:102BA00010E081C040E050E0BA0189E0EDDD811124
:102BB00077C060E170E0CE01019674DD892B09F4E5
:102BC00071C089818295869586958370813031F5B3
:102BD00088858F7390E0A0E0B0E0DC01992788271A
:102BE0000196A11DB11D298530E0322F22274A858B
:102BF000240F311D820F931FA11DB11D072E7AE0F6
:102C0000880F991FAA1FBB1F7A95D1F7702DF80165
:102C100080839183A283B38310E045C049854295A8
:102C2000469546954370888550E0F4E08F9F400DAF
:102C3000511D11244F5F5F4F8F81837090E0982F5B
:102C40008827990F990F480F591F60E070E09E8107
:102C50009F708B85881F8827881F890F9A8593709E
:102C6000990F890F87506A017B0104C0CC0CDD1CD1
:102C7000EE1CFF1C8A95D2F7F801C082D182E28255
:102C8000F38210E010C080E890E0A0E0B0E0FA012C
:102C900080839183A283B38310E005C014E003C056
:102CA00011E001C011E0D3DC812F03C083E001C03B
:102CB00083E060960FB6F894DEBF0FBECDBFDF9104
:102CC000CF911F910F91FF90EF90DF90CF900895DB
:102CD000A1E21A2EAA1BBB1BFD010DC0AA1FBB1F20
:102CE000EE1FFF1FA217B307E407F50720F0A21B92
:102CF000B30BE40BF50B661F771F881F991F1A94FF
:102D000069F760957095809590959B01AC01BD0128
:102D1000CF01089509D0A59F900DB49F900DA49F59
:102D2000800D911D11240895A29FB001B39FC00191
:102D3000A39F700D811D1124911DB29F700D811DE7
:102D40001124911D0895AEE0B0E0E8EAF6E191C2E9
:102D50000D891E8986E08C831A8309838FEF9FE794
:102D60009E838D83AE01475E5F4F6F89788DCE0164
:102D7000019608D0EF81F885E00FF11F10822E96A2
:102D8000E4E093C2ACE0B0E0E7ECF6E164C27C01C1
:102D90006B018A01FC0117821682838181FFB0C119
:102DA000CE0101964C01F7019381F60193FD8591C7
:102DB00093FF81916F01882309F49EC1853239F414
:102DC00093FD859193FF81916F01853221F4B701C5
:102DD00090E0B1D1E8CF512C312C20E02032A0F48A
:102DE0008B3269F030F4803259F0833269F420611B
:102DF0002CC08D3239F0803339F4216026C0226036
:102E0000246023C0286021C027FD27C030ED380F83
:102E10003A3078F426FF06C0FAE05F9E300D1124A8
:102E2000532E13C08AE0389E300D1124332E2062B9
:102E30000CC08E3221F426FD5FC1206406C08C36A2
:102E400011F4206802C0883641F4F60193FD8591A3
:102E500093FF81916F018111C1CF982F9F7D955470
:102E6000933028F40C5F1F4FFFE3F9830DC08336C6
:102E700031F0833771F0833509F057C021C0F80174
:102E8000808189830E5F1F4F44244394512C540149
:102E900014C03801F2E06F0E711CF801A080B180FF
:102EA00026FF03C0652D70E002C06FEF7FEFC50104
:102EB0002C8736D12C0183012C852F77222E16C02A
:102EC0003801F2E06F0E711CF801A080B18026FF7E
:102ED00003C0652D70E002C06FEF7FEFC5012C8746
:102EE00014D12C012C852068222E830123FC19C0CB
:102EF000832D90E048165906A0F4B70180E290E0D7
:102F00001AD13A94F5CFF50127FC859127FE8191DE
:102F10005F01B70190E00FD131103A94F1E04F1A00
:102F200051084114510479F7DEC0843611F0893616
:102F300031F5F80127FF07C060817181828193819B
:102F40000C5F1F4F08C060817181882777FD8095D5
:102F5000982F0E5F1F4F2F76B22E97FF09C09095C6
:102F60008095709561957F4F8F4F9F4F2068B22E4F
:102F70002AE030E0A40111D1A82EA81843C085375B
:102F800029F42F7EB22E2AE030E025C0F22FF97FFF
:102F9000BF2E8F36C1F018F4883579F0ADC0803778
:102FA00019F0883721F0A8C02F2F2061B22EB4FE6F
:102FB0000DC08B2D8460B82E09C024FF0AC09F2F3E
:102FC0009660B92E06C028E030E005C020E130E070
:102FD00002C020E132E0F801B7FE07C060817181D4
:102FE000828193810C5F1F4F06C06081718180E0F8
:102FF00090E00E5F1F4FA401D0D0A82EA818FB2D83
:10300000FF77BF2EB6FE0BC02B2D2E7FA51450F4DC
:10301000B4FE0AC0B2FC08C02B2D2E7E05C07A2C4F
:103020002B2D03C07A2C01C0752C24FF0DC0FE018E
:10303000EA0DF11D8081803311F4297E09C022FF41
:1030400006C07394739404C0822F867809F0739439
:1030500023FD12C020FF06C05A2C731418F4530C21
:103060005718732C731460F4B70180E290E02C873A
:1030700062D073942C85F6CF731410F4371801C006
:10308000312C24FF11C0B70180E390E02C8753D08E
:103090002C8522FF16C021FF03C088E590E002C006
:1030A00088E790E0B7010CC0822F867851F021FDAF
:1030B00002C080E201C08BE227FD8DE2B70190E003
:1030C0003AD0A51430F4B70180E390E034D05A949C
:1030D000F8CFAA94F401EA0DF11D8081B70190E0C8
:1030E0002AD0A110F6CF332009F45DCEB70180E2DB
:1030F00090E021D03A94F7CFF7018681978102C002
:103100008FEF9FEF2C96E2E1C2C0FC010590615069
:1031100070400110D8F7809590958E0F9F1F0895ED
:10312000FC016150704001900110D8F78095909596
:103130008E0F9F1F08950F931F93CF93DF93182F28
:10314000092FEB018B8181FD03C08FEF9FEF20C022
:1031500082FF10C04E815F812C813D814217530751
:103160007CF4E881F9819F012F5F3F4F39832883E9
:10317000108306C0E885F985812F0995892B29F7E9
:103180002E813F812F5F3F4F3F832E83812F902FD2
:10319000DF91CF911F910F910895FA01AA2728304E
:1031A00051F1203181F1E8946F936E7F6E5F7F4F14
:1031B0008F4F9F4FAF4FB1E03ED0B4E03CD0670F90
:1031C000781F891F9A1FA11D680F791F8A1F911DE3
:1031D000A11D6A0F711D811D911DA11D20D009F433
:1031E00068943F912AE0269F11243019305D319375
:1031F000DEF6CF010895462F4770405D4193B3E05E
:103200000FD0C9F7F6CF462F4F70405D4A3318F004
:10321000495D31FD4052419302D0A9F7EACFB4E0B5
:10322000A6959795879577956795BA95C9F700976D
:103230006105710508959B01AC010A2E069457950E
:10324000479537952795BA95C9F7620F731F841F65
:10325000951FA01D08952F923F924F925F926F92FB
:103260007F928F929F92AF92BF92CF92DF92EF9216
:10327000FF920F931F93CF93DF93CDB7DEB7CA1B97
:10328000DB0B0FB6F894DEBF0FBECDBF09942A88C2
:10329000398848885F846E847D848C849B84AA846A
:1032A000B984C884DF80EE80FD800C811B81AA81F7
:1032B000B981CE0FD11D0FB6F894DEBF0FBECDBFC2
:0832C000ED010895F894FFCF21
:1032C80001222A2B2C3A3B3C3D3E3F5B5D7C7F0034
:1032D8007265616479006E6F202569005941590053
:1032E8006E657766696C652E747874007772697498
:1032F800696E6700497420776F726B73210D0A003D
:10330800776F726B73006572726F7200646F6E65AF
:023318000000B3
:00000001FF
